:040800002FEF04F0E2
:060808005E8238EF18F0DB
:100818005E80D8CF09F0E8CF0AF0E0CF0BF0D9CF4F
:100828000CF0DACF0DF00E01C0B9C8A903D0FEEC68
:1008380011F005D0C0BBC8AB02D057EC10F00DC00A
:10084800DAFF0CC0D9FF0BC0E0FF0AC0E8FF09C0FF
:10085800D8FF5E9010002FEF14F0826A836A380E7A
:10086800846E0F010A6B126B1A6BE10E876E886833
:10087800980E896EC10E0C6F146B1C6B0B6B136991
:10088800180E1B6F286B09691169196908691069C5
:100898001869080E256F170E0E01B06F090EF86F54
:1008A800130EB26F0F0EF56F140EB36F100EF66FB6
:1008B8000F01076B066B056B0F6B0E6B0D6B176BE0
:1008C800166B156B246B236B226B0E68000EE5EC20
:1008D80015F00E68000E1EEC16F08288F28A480E9B
:1008E8009E6E900E9C6E260E9D6E480E9A6E9B6AAA
:1008F8009D8A9C880E01B89BB899C08B0F015B9F9D
:100908000E01BE91BE93C691C693400E616E0F0153
:100918005A6B050E576F586B596B546B6B0E556FAE
:10092800070E566F606A536B080E526F516B940E28
:100938005B6F030E0001E66F210EE56FB30EE82E24
:10094800FED7E52FFCD7E62FFAD751EC13F0E90EC6
:10095800116EFB0E126E000EEFEC14F0E10E116E2C
:10096800FB0E126E010EEFEC14F0D90E116EFB0E99
:10097800126E020EEFEC14F0D10E116EFB0E126E19
:10098800030EEFEC14F0C90E116EFB0E126E040E7E
:10099800EFEC14F0C10E116EFB0E126E050EEFECAB
:1009A80014F0B90E116EFB0E126E060EEFEC14F079
:1009B80002EC16F00EA817D05D80000E23EC18F09C
:1009C8001C0E0001E56F3A0EE82EFED7E52FFCD786
:1009D80000D03E0E106EFF0E116E86EC15F002EC84
:1009E80016F00EB8FCD77C0E466EFE0E476EE5EC90
:1009F80017F002EC16F00EAA65D0000E23EC18F0E2
:100A08001C0E0001E56F3A0EE82EFED7E52FFCD745
:100A180000D01C0E106EFF0E116E86EC15F00A0E3B
:100A28000001E96F2CD0400E23EC18F01C0E0001D9
:100A3800E56F3A0EE82EFED7E52FFCD700D08E0ED4
:100A4800466EFA0E476EFF0E486EE9C049F04A6AD4
:100A58003AEC16F01FDA86EC15F0160E0001E66F78
:100A6800480EE56F150EE82EFED7E52FFCD7E62FCA
:100A7800FAD702EC16F00EAA04D00001E907E951F2
:100A8800D2E10001E9511AE1400E23EC18F01C0EE6
:100A98000001E56F3A0EE82EFED7E52FFCD700D00F
:100AA800CE0E106EFF0E116E86EC15F0C7EC15F029
:100AB800EC0E106EFF0E116E86EC15F002EC16F0BF
:100AC8000EBAFCD7190E466EFE0E476EE5EC17F00F
:100AD800AAEC0CF0FE0ED36ED26A540ED56E0E013F
:100AE800B58BC59BBD8B800ED46EF10E466EFD0E88
:100AF800476EE5EC17F0F28CF28EA80E466EFF0EEC
:100B0800476EE5EC17F095EC17F09ED98D0E466E02
:100B1800FF0E476EE5EC17F00E01CD81050E466E0F
:100B2800FE0E476EE5EC17F064EC0FF002EC16F0E1
:100B38000EC080F00FC081F056EC07F0000181A3D1
:100B480081B104D081B502D0030E16D081A381B142
:100B580004D081A502D0020E0FD081A381A104D0B8
:100B680081A502D0010E08D081B381A104D081A54E
:100B780002D0866B02D0040E866F020E861908E139
:100B88005DB40ED0080E0E6EE5EC15F05D8408D04D
:100B98005DA406D0080E0E6E000EE5EC15F05D940F
:100BA8000E01C6A316D05DA20AD05D92800E0E6E0D
:100BB800000EE5EC15F032D9F5CF7DF008D05D8256
:100BC800800E0E6EE5EC15F029D9F5CF7CF00E01FC
:100BD800C69364C016F065C017F066C018F067C009
:100BE80019F01A6A010E44D9A4EC16F0000903E0C2
:100BF80095EC17F029D95A5004E195EC17F02FD944
:100C080088D068C016F069C017F06AC018F06BC0C9
:100C180019F01A6A040E2CD9A4EC16F0000979E030
:100C280095EC17F01CD95A0413E1EAC00EF0EBC09A
:100C38000FF034D982EC17F01FD96BE3080E466E1B
:100C4800FD0E476EE5EC17F0000E35EC11F061D0A3
:100C5800020E5A1845E1ECC00EF0EDC00FF01ED997
:100C680082EC17F009D90AE3390E466EFD0E476E7D
:100C7800E5EC17F0000E35EC11F04BD08B5122E06B
:100C88008B078B511FE18C510FE0F0C08BF08C6B00
:100C9800200E0E6E000EE5EC15F0B20E466EFE0E3E
:100CA800476EE5EC17F00ED0F1C08BF0010E8C6F9B
:100CB800200E0E6EE5EC15F0FA0E466EFE0E476E2F
:100CC800E5EC17F000017EA106D0020E0E6E000EB4
:100CD800E5EC15F01ED0020E0E6EE5EC15F019D0FD
:100CE800030E5A1816E10001865111E1F8A30FD03E
:100CF8008A510FE08A078A510CE1970E466EFD0E65
:100D0800476EE5EC17F0000E35EC11F002D0EFC09D
:100D18008AF03EEC18F000090EE1000E18EC15F010
:100D2800000E63EC15F05A0403E0020E5A1803E1B2
:100D3800000E35EC11F05B5024E000018D5110E0FD
:100D48007D51EE5D0DE28D6BB50E466EFF0E476E62
:100D5800E5EC17F0010E0E6E000EE5EC15F011D063
:100D68008D510FE1EE517D5D0CE2010E8D6FC20ECB
:100D7800466EFF0E476EE5EC17F0010E0E6EE5ECC1
:100D880015F00001875129E074C016F075C017F0FE
:100D980076C018F077C019F01A6A280E69D8A4EC42
:100DA80016F000091AE06F0E466EFF0E476EE5EC6E
:100DB80017F0CFEC0DF00001876B0FD0F7EC0AF0BD
:100DC80017D040EC0DF014D0C2EC14F011D06FEC39
:100DD80017F00ED020EC17F00BD000018951EEE08F
:100DE800010AEFE0030AF0E0010AF1E0070AF2E085
:100DF800000E23EC18F048D8CCEC10F0AE0E106EB4
:100E0800116A86EC15F0400E23EC18F03DD8CCECB6
:100E180010F040D886EC15F0040086D66DCFE5F0CA
:100E28006ECFE6F00001D890E633E533D890E6338C
:100E3800E533E551E76FE86BB90EE725F66EFA0E74
:100E4800E821F76E080012000EC064F00FC065F0CC
:100E580010C066F011C067F00F015B8112000EC070
:100E680068F00FC069F010C06AF011C06BF0120092
:100E78001B6E1C6A1D6A000C00017E4B7F2B0E50F6
:100E88007E5D0F507F591200050E166E176A186A9C
:100E9800196A000C8E0E106E116A1200116A3C0E4F
:100EA800106E3C0C0001CE6B80C0CFF0CFB3CE2BC0
:100EB800CFB9CE2BCFB7CE2BCFB1CE2BCFB5CE2B34
:100EC800CFBBCE2BCE0504E1855135E0CF1933E0F9
:100ED800CF5117E1855115E0510E466EFD0E476E54
:100EE80085C048F0496AE5EC17F0000185A509D0EE
:100EF800895107E1845105E15A5003E1010E35ECAF
:100F080011F095EC17F00EC070F00FC071F010C022
:100F180072F011C073F070C06CF071C06DF072C0E7
:100F28006EF073C06FF0010E00017B6F5E0E7A6F7A
:100F3800856B846B1200855101E035D124DA320EBD
:100F48001A6E000E1B6A1C6A1D6AA4EC16F00009D2
:100F5800D8B41200AE0E466EFD0E1EDAE5EC17F0A0
:100F68000001CFA15ED089510EE15B0EEE6105D084
:100F7800050EEE27D7EC17F054D05F0EEE1951E0AE
:100F88005F0EEE6FF7D7890520E1020E5A180DE1C2
:100F9800ED5105E15B0EEC5D02E208DAEBD75F0E7E
:100FA800EC19ED113EE00CDAE5D7570EEA5D020EBA
:100FB800EB5903E2EA4BEB2BDDD7570EEA1903E1B5
:100FC800020EEB192EE0EDD9D5D7020E89190DE1E5
:100FD800F8B103D04F6A4F2A01D04F6A0001F85187
:100FE8004F18FE0B4F18F86FC5D7040E89190AE180
:100FF800ED5103E15B0EEC5DD0E35F0EEC19ED11F2
:10100800D2E10FD0030E89190CE15B0EEF6103D01A
:10101800050EEF27AFD75F0EEF1903E05F0EEF6FF6
:10102800A9D7CFA956D089510EE1090EEE6505D092
:10103800050EEE5FD7EC17F04CD0050EEE1949E01F
:10104800050EEE6FF7D7890517E1020E5A180DE164
:10105800ED5103E10A0EEC5D02E3ADD9EBD7050EC5
:10106800EC19ED1136E0B0D9E5D7EA51EB1131E0D2
:10107800EA07D8A0EB07DED7020E89190EE1F8B30C
:1010880003D04F6A4F2A01D04F6A4F460001F851EA
:101098004F18FD0B4F18F86FCDD7040E89190AE1C8
:1010A800ED51DBE10A0EEC5DD8E2050EEC19ED110D
:1010B800DAE10FD0030E89190CE1090EEF6503D0B0
:1010C800050EEF5FB7D7050EEF1903E0050EEF6FBA
:1010D800B1D7CFAB14D0895102E1010E0BD08905ED
:1010E80002E1896B0CD0020E8919FBE0030E891905
:1010F80003E1020E896F03D0040E8919F2E0CFA52F
:101108001CD089510CE15A0403E0020E5A1815E16B
:10111800000E35EC11F0010E0001846F0ED0890528
:101128000CE0020E891909E0040E891906E1020E85
:1011380035EC11F00001896BEED7CFA31DD0895192
:101148000DE1030E5A1804E1000E35EC11F014D02D
:101158005A5012E1030E35EC11F00ED0890507E163
:101168005950010ED8A4000E63EC15F005D0020EFC
:10117800891902E1030E896F0001CFA711D08951A7
:1011880007E15B50010ED8A4000E18EC15F008D04A
:10119800890506E15850010ED8A4000E8AEC16F015
:1011A800CFC085F01200EFD81A6A040E3CEC07F0A5
:1011B800A4EC16F000091CE00001845119E1EE0EC0
:1011C800466EFC0EE9D8E5EC17F00001CFAB06D06F
:1011D800895102E0890502E1020E896FCFA506D088
:1011E800895104E15A5002E1040E896F010E846F9F
:1011F8006CC016F06DC017F06EC018F06FC019F013
:101208007AC01AF07BC01BF01C6A1D6AA4EC16F0A9
:101218000009D8B41200C50E466EFD0EBDD8E5EC27
:1012280017F00001CFA150D089510EE15B0EEE619D
:1012380005D0050EEE27D7EC17F046D05F0EEE1955
:1012480043E05F0EEE6FF7D7890522E1020E5A18C8
:101258000DE1ED5105E15B0EEC5D02E2A7D8EBD79D
:101268005F0EEC19ED1130E0ABD8E5D74E0EEA5D14
:10127800020EEB5905E20A0EEA27000EEB23DBD734
:10128800570EEA1903E1020EEB191EE08AD8D3D7EC
:10129800040E89190AE1ED5103E15B0EEC5DDEE312
:1012A8005F0EEC19ED11E0E10FD0030E89190CE186
:1012B8005B0EEF6103D0050EEF27BDD75F0EEF1968
:1012C80003E05F0EEF6FB7D7CFA94ED089510EE17B
:1012D800090EEE6505D0050EEE5FD7EC17F044D089
:1012E800050EEE1941E0050EEE6FF7D7890520E1EE
:1012F800020E5A180DE1ED5103E10A0EEC5D02E30E
:101308005AD8EBD7050EEC19ED112EE05DD8E5D7CC
:10131800EB5103E10A0EEA5D05E30A0EEA5F000EEF
:10132800EB5BDBD7EA51EB111FE0EA6BEB6BD5D730
:10133800040E89190AE1ED51E3E10A0EEC5DE0E2E1
:10134800050EEC19ED11E2E10FD0030E89190CE13D
:10135800090EEF6503D0050EEF5FBFD7050EEF1935
:1013680003E0050EEF6FB9D795EC17F00EC06CF0DF
:101378000FC06DF010C06EF011C06FF000017B6BF4
:10138800960E7A6F960C70C016F071C017F072C086
:1013980018F073C019F01200476ECFC048F0496AC0
:1013A8001200020EEB6F570EEA6F570C050EEC2772
:1013B800000EED23000C050EEC5F000EED5B000C3B
:1013C800ED6B5F0EEC6F5F0CED6B050EEC6F050CB3
:1013D800195014E17E0E185CD8B0020C06511A6E32
:1013E8001B6A18C01CF019C01DF0D8901C361D3699
:1013F8001A501C1803E11B501D1801E0020C060EC0
:10140800546E070E2A6EE6D0D00E161825E1070E88
:10141800171822E1000E2A245BEC0FF0DF50226E31
:10142800236A2A2A2250236E226A000E2A245BECA1
:101438000FF0DF5022122A2A580E225C020E23587F
:1014480004E3020E236E570E226E22C0EAF023C078
:10145800EBF0D7EC17F0B9D0D10E16182AE1070E29
:10146800171827E1000E2A245BEC0FF0DF50286ED6
:10147800296A2A2A2850296E286A000E2A245BEC39
:101488000FF0DF5028122A2A295003E1600E285C49
:1014980003E3296A5F0E07D0295006E1050E285C90
:1014A80003E2296A050E286E28C0ECF029C0EDF089
:1014B800D0D7D20E161814E1070E171811E18FD8DD
:1014C8005BEC0FF0DF50246E2A2A5F0E246401D0F3
:1014D80003D0050E246001D0246E24C0EFF0B9D7E4
:1014E800D30E161814E1070E171811E178D85BEC23
:1014F8000FF0DF50256E2A2A5F0E256401D003D035
:10150800050E256001D0256E25C0EEF0A2D7D40EB9
:10151800161814E1070E171811E161D85BEC0FF0EB
:10152800DF50266E2A2A630E266401D003D0265087
:1015380002E1010E266E26C0F0F08BD7D50E1618E4
:1015480014E1070E171811E14AD85BEC0FF0DF50D1
:10155800276E2A2A630E276401D003D0275002E1A0
:10156800010E276E27C0F1F074D7340E161815E156
:10157800080E171812E1000E2A245BEC0FF0DF505A
:101588001E6E2DD85BEC0FF0DF501F6E2A2A1FC08D
:101598000EF01E50E5EC15F018D0350E161803E1C4
:1015A800080E1718D8A4020C000E2A245BEC0FF0C2
:1015B800DF50206E14D85BEC0FF0DF50216E2A2A22
:1015C80021C00EF020501EEC16F01806D8A01906FF
:1015D800164A172A1850191001E016D7000C2A2AA3
:1015E800000E2A241200020E5A1805E0EAC0DBF0A9
:1015F800EBC0DCF004D0ECC0DBF0EDC0DCF0DBC00D
:1016080013F0DCC014F0C7EC0DF03EEC15F01350ED
:101618000001E36F020E5A1805E0EAC0DDF0EBC0E6
:10162800DEF004D0ECC0DDF0EDC0DEF0DDC00EF081
:10163800DEC00FF0CBEC0DF0A8EC15F00E50000159
:10164800E46F090EE36501D0E36F630EE46501D032
:10165800E46FA5EC0DF03EEC15F013500001E16FBE
:10166800AEEC0DF0A8EC15F0B7EC0DF03EEC15F073
:1016780013500001E26F090EE16501D0E16F630EBE
:10168800E2651AD0E26F18D0F8B181A304D0030E36
:10169800DF6FFC0E0FD0090EDF6FFC0E0BD0F70EBC
:1016A800DF6FFB0E07D0FD0EDF6FFB0E03D0F10ED0
:1016B800DF6FFB0EE06F08D05A50E6E0010AEFE05A
:1016C800030AF1E0010AF3E0030E5A1823E1F8A334
:1016D80021D03C0E0E6E8A5170EC16F00001E46FBA
:1016E8003C0E0E6E8A515CEC17F00001E36F090E98
:1016F800E46501D0E46FAE0E466E550E476EFE0EE1
:10170800486EE4C049F04A6AE3C04BF04C6A3AECD0
:1017180016F015D0AE0E466EE80E476EFE0E486EF9
:10172800EEC049F04A6ADFC04BF0E0C04CF0E3C0BD
:101738004DF04E6AE4C04FF0506A3AEC16F08E0E47
:10174800466EDB0E476EFD0E486E7CC049F04A6A55
:101758007DC04BF04C6AE1C04DF04E6AE2C04FF0DC
:10176800506A3AEC16F0030E861902E10B0E0DD002
:10177800020E861902E10A0E08D0860502E1090E5A
:1017880004D08651080ED8A4450E986F5A0404E078
:10179800020E5A18D8A412007EA11200200E9B6FC8
:1017A800200C3450A4D8250A01E096D03450A8D88B
:1017B8000001796B786B78C051F03C6A0CD051828B
:1017C80034509ED808D0010E3C6E05D034508FD8C6
:1017D800300AF5E0F8D73C50F9E034C014F035C0D1
:1017E80015F063EC14F014C078F015C079F000011E
:1017F80079AF05D05180786D791FD8B0792B3450E6
:10180800D96EDA6ADECF3DF0DDCF3EF087D8580AD0
:1018180003E084D8750A2CE1355078D8DECF38F04B
:10182800DECF39F03D28366E000E3E20376E34503C
:10183800D96EDA6A36C0DEFF37C0DDFF14D032C099
:1018480028F033C029F038C02AF039C02BF0FFEF58
:1018580012F032C028F033C029F038C02AF039C05D
:101868002BF0ADEF12F05AD8580AF3E02D0AE7E052
:101878003C6A34503CD8730A09E13450D96EDA6AAC
:10188800DE2A000EDD22010E3C6E15D034502FD812
:101898006C0A11E153D8362A48D86C0A0CE14ED8A4
:1018A800020E362642D8730A06E13450D96EDA6A37
:1018B800030EDE26E6D73C500CE032C018F033C0E9
:1018C80019F0355023D8DECF1AF0DECF1BF0DFEF4A
:1018D8000FF0345015D8000C345009D80F6E106A28
:1018E80032C011F033C012F0F2EC13F0F2D7D96E17
:1018F800DA6ADECFF6FFDDCFF7FF0800F5501200F9
:10190800D96EDA6ADE2A000EDD22000CD96EDA6A98
:10191800020EDF26DF5CD96EDA6A12003DC0F6FFE0
:101928003EC0F7FF0800F5501200000E372236C0FF
:10193800F6FF37C0F7FF0800F55012003450D96E93
:10194800DA6ADECF36F0DDCF37F01200576A566A12
:101958000001D06BD051100DF3CF0EF0F4CF0FF083
:10196800FDEC17F0CE6FCE2918E0550ECE1907E121
:10197800AA0E561812E0D0C057F0550E09D0AA0E7C
:10198800CE1907E1550E561808E0D0C057F0AA0E38
:10199800566ED02B3F0ED065DDD7565008E10F0E9E
:1019A800466EFC0E476EE5EC17F008EF17F09E0E3A
:1019B800466EFC0E476E57C048F0496AE5EC17F0D2
:1019C8000001CF6BCF51EA0FD96EDA6A57504D6ECE
:1019D8004E6A4D3A4E3AF00E4E164D500F0B4E12BF
:1019E800F00E4D16CF514D26000E4E224D280E6E8C
:1019F800000E4E200F6EFDEC17F0DF6ECF2B0E0E93
:101A0800CF65E0D75F0EEE6501D003D0050EEE611D
:101A180001D0EE6FED5103E1600EEC5D03E3ED6B79
:101A28005F0E07D0ED5106E1050EEC5D03E2ED6BAC
:101A3800050EEC6F580EEA5D020EEB5902E3D5EC89
:101A480009F05F0EEF6501D003D0050EEF6101D0FC
:101A5800EF6F630EF06501D003D0F05102E1010E83
:101A6800F06F630EF16502D0F16F630CF151D8A4E9
:101A78001200010EF16F010C020E5A1805E0EAC0BF
:101A8800DBF0EBC0DCF004D0ECC0DBF0EDC0DCF048
:101A9800DBC013F0DCC014F076D83EEC15F0135020
:101AA8000001DF6F020E5A1805E0EAC0DDF0EBC056
:101AB800DEF004D0ECC0DDF0EDC0DEF0DDC00EF0ED
:101AC800DEC00FF064D8A8EC15F00E500001E06FEE
:101AD800090EDF6501D0DF6F630EE06501D0E06FAE
:101AE800AE0E466E410E476EFE0E45D83AEC16F025
:101AF80028D83EEC15F013500001DF6F2BD8A8EC66
:101B080015F031D83EEC15F013500001E06F090EC6
:101B1800DF6501D0DF6F630EE06501D0E06F8E0EE8
:101B2800466E2D0E476EFE0E26D83AEC16F058502B
:101B380002E03E0EBA6F5950D8B412003E0E936FB1
:101B48003E0C7EC013F07FC014F00E0E166E100E01
:101B5800156E100C0E0E116E100E106E7EC00EF06B
:101B68007FC00FF0100C0EC013F00FC014F0166AEF
:101B78003C0E156E3C0C486EDFC049F04A6AE0C066
:101B88004BF04C6A1200166A3C0E156E3C0C116A3A
:101B98003C0E106E3C0C5728506E565003E1506AAC
:101BA800550E566E400E501807E1550E5618AA0EDF
:101BB800D8A4550E566E506AC80E466EFC0E476E77
:101BC80050C048F0496AE5EC17F05050100DF3CFBB
:101BD8000EF0F4CF0FF056C010F055EC16F00009D7
:101BE80003E162D853D827D05BD850D84B6AE5ECCC
:101BF80017F04F6A50504D6E4E6A4D3A4E3AF00EFD
:101C08004E164D500F0B4E12F00E4D164F504D26DE
:101C1800000E4E224D280E6E000E4E200F6E4F50B5
:101C2800EA0FD96EDA6ADF50106E55EC16F000092B
:101C380005E13AD814D84B6AE5EF17F031D80FD838
:101C48004B6AE5EC17F04F2A0E0E4F64D3D750C0FD
:101C580057F0DA0E466EFF0E476EE5EF17F0476E47
:101C68005050100DF3CF4DF0F4CF4EF04F504D269D
:101C7800000E4E224D28486E000E4E20496E4F50E1
:101C8800EA0FD96EDA6ADF504A6E1200476E50507A
:101C9800100DF3CF48F0F4CF49F056C04AF01200C7
:101CA800710E466EFC0E1200400E466EFC0E1200BF
:101CB800115003E17E0E105C01E3020C1050102459
:101CC800026F10507AD8126E70D0200E0E180FE1E5
:101CD8004E0E0F180CE1000E12245BEC0FF07FC0C3
:101CE800DFFF67D85BEC0FF07EC0DFFF58D0210E16
:101CF8000E180EE14E0E0F180BE1000E12245BECCD
:101D08000FF0DF6A56D85BEC0FF08AC0DFFF47D0D0
:101D1800220E0E180EE14E0E0F180BE1000E1224C3
:101D28005BEC0FF0DF6A45D85BEC0FF08BC0DFFF90
:101D380036D0230E0E180FE14E0E0F180CE1000ED0
:101D480012245BEC0FF07CC0DFFF33D85BEC0FF0A4
:101D58007DC0DFFF24D0240E0E180FE14E0E0F18A1
:101D68000CE1000E12245BEC0FF081C0DFFF21D8DC
:101D78005BEC0FF080C0DFFF12D0250E0E1803E1D8
:101D88004E0E0F18D8A4020C000E12245BEC0FF0B4
:101D9800F9C0DFFF0ED85BEC0FF05CC0DFFF122A42
:101DA8001006D8A011060E4A0F2A105011108DE106
:101DB800000C122A000E12241200020DF350030F19
:101DC800546E030C115003E17E0E105C01E3020C0B
:101DD80010501024026F1050E1EC0EF0126E63D018
:101DE800D00E0E180DE1070E0F180AE1000E12248E
:101DF8005ED8EBC0DFFF60D85AD8EAC0DFFF4DD00D
:101E0800D10E0E180EE1070E0F180BE1000E12246A
:101E18004ED80001ED51DF6E4FD849D8ECC0DFFF36
:101E28003CD0D20E0E180CE1070E0F1809E1000E77
:101E380012243DD8DF6A40D83AD8EFC0DFFF2DD052
:101E4800D30E0E180CE1070E0F1809E1000E12242C
:101E58002ED8DF6A31D82BD8EEC0DFFF1ED0D40EC3
:101E68000E180CE1070E0F1809E1000E12241FD8F6
:101E7800DF6A22D81CD8F0C0DFFF0FD0D50E0E18AD
:101E880003E1070E0F18D8A4020C000E12240FD875
:101E9800DF6A12D80CD8F1C0DFFF122A1006D8A0CA
:101EA80011060E4A0F2A105011109AE1000CD96E33
:101EB800DA6A020EDA221200122A000E1224120026
:101EC800040E551857E01200060E541815E104299F
:101ED80009E1055107E15ED869D8010ED06F9AEC87
:101EE80011F045D0045108E1055106E153D85ED8F8
:101EF800D06B9AEC11F03BD0030E39D0060E541873
:101F0800FBE148D8136ED1C014F04AD8156ED3C07F
:101F180016F05AEC12F02BD0060E5418EDE13AD810
:101F28000E6ED1C00FF03CD8106ED3C011F05CEC2F
:101F38000EF01DD0060E5418DFE12CD80E6ED1C05D
:101F48000FF02ED8106ED3C011F0E6EC0EF00FD0C3
:101F5800080E5464D1D71ED8166ED1C017F020D8F9
:101F6800186ED3C019F0ECEC09F001D0010E000195
:101F7800D56F0DD002010151010AC0E0020ADAE072
:101F8800070ACAE0010AA0E0150AE2E0EFD7D55136
:101F9800C9EF17F002510001D16F0201035112007D
:101FA80004510001D36F0201055112000001CE6FE8
:101FB800D1C0CFF012001AC022F01BC023F022506B
:101FC800231004E1E50E226EFF0E236E246A256AB3
:101FD80002D0244A252A245022241C6E255023206E
:101FE8001D6E1CC0F6FF1DC0F7FF000EF86E0E0E2A
:101FF800F76403D00800F55001D03ED80009E9E1A4
:1020080024C01EF025C01FF078C020F079C021F050
:1020180051B020D005D03FD8F2EC13F0244A252A3D
:1020280031D818E2F8D722C0F6FF23C0F7FF000E18
:10203800F86E0E0EF76403D00800F55001D01CD8D6
:102048000F6E106A18C011F019C012F0F2EC13F0FC
:10205800224A232A1E06D8A01F061E28E4E11F28AC
:10206800E2E151A0120005D016D8F2EC13F0244A90
:10207800252A08D8F9E31200F6CFE1FFF7CFE2FFEF
:10208800E75012002050245C2550800A1C6E215015
:10209800800A1C581200106A200E0F6E18C011F02A
:1020A80019C012F0200C9CA203D09C989C881200A6
:1020B800EFEC16F0086E9CA408BE12000E01C0B921
:1020C8001200030E556401D0030C3A0E081806E1FD
:1020D800546A0001826B010E556E010C0D0E081832
:1020E8000AE1550403E1030E546002D0556A120058
:1020F800030E556E030C0A0E08180AE1030E551854
:10210800F5E100018251F2E15406040E556E040C0B
:1021180008C007F0D00E0726090E076409D008C0CA
:1021280007F0200E07129F0E0726060E0760060C02
:10213800550410E15428DAE0000E54245BEC0FF04B
:102148000850B9EC17F0076E0738F00BDF6E020E77
:10215800556E020C020E5518D8A412000850B9EC9E
:1021680017F0076E000E54245BEC0FF00750DF12D7
:10217800545005E10001835102010019B7E1000E36
:1021880054245BEC0FF0DF5000018227542AA3D7B8
:1021980095EC17F00EC022F00FC023F010C024F009
:1021A80011C025F0165017101810191005E1010E6E
:1021B800166E176A186A196A161C1A6E171C1B6E97
:1021C800181C1C6E191C1D6E22501A5C23501B58BB
:1021D80024501C5825501D5820E32BD0221C1A6E61
:1021E800231C1B6E241C1C6E251C1D6E1A50165CAD
:1021F8001E6E1B5017581F6E1C501858206E1D500D
:102208001958216E95EC17F01E500E5C1F500F5890
:102218002050105821501158E1E395EC17F0225046
:102228000E5C23500F582450105825501158D6E2F0
:10223800120095EC17F022500E5C1A6E23500F58BE
:102248001B6E245010581C6E255011581D6E1650C8
:102258001A5C17501B5818501C5819501D58E9E3A0
:1022680012004E6E5A18D8B412004E5019E10001EF
:102278008C6B000E18EC15F0000E63EC15F0000ED8
:102288008AEC16F0370E0E6E000EE5EC15F00E68AF
:10229800000E1EEC16F05A6A9B0E466EFF0E3CD0DE
:1022A8004E0410E15A500EE13EEC18F00009D8B483
:1022B800120035D8E5EC15F0010E5A6E210E466E67
:1022C800FD0E2AD0020E4E1812E15A5010E13EECD3
:1022D80018F00009D8B4120022D8E5EC15F0F1C0C6
:1022E8008BF0020E5A6E800E466EFD0E15D0030E50
:1022F8004E18D8A412005A50D8A412005B50D8A483
:102308001200030E5A6EEFC08AF0040E0E6E1EEC19
:1023180016F0690E466EFD0E476EE5EF17F07E6B00
:102328007F6B010E8C6F220E0E6E220C48D0D0519E
:1023380006E05A505EE1010E35EC11F0000C5A042B
:1023480058E1000E35EC11F0000CD05106E05A505F
:1023580050E1020E35EC11F0000C020E5A1849E15A
:10236800000E35EC11F0000CD05106E05A5041E156
:10237800030E35EC11F0000C030E5A183AE1000E6A
:1023880035EC11F0000CD05118EC15F0000CD051C0
:1023980063EC15F0000CD0518AEC16F0000CD0B1AB
:1023A80002D0F89102D00001F881D7EC17F0000CA8
:1023B800D0B102D0F89302D00001F883F6D7CEC08E
:1023C8004FF0CFC050F05050D8A4020C4F50640AC0
:1023D800AEE0010ABAE0030AC7E0010AD4E00F0A36
:1023E800D6E0010AD8E0030ADAE0010AD8A4020C10
:1023F800DFD7000C4AD03A0E13EC18F0526A536A31
:10240800060E556E060C545052180AE1536C533898
:102418000F0BF1EC17F013EC18F0090E556E090CC0
:10242800000E52245BEC0FF0DF50046E04380F0BE3
:10243800F1EC17F013EC18F0070E556E070C000EB0
:1024480052245BEC0FF0DF500F0BF1EC17F013EC9C
:1024580018F0000E52245BEC0FF0DF505326522A7E
:10246800CFD753500F0BF1EC17F013EC18F00A0EFE
:10247800556E0A0C0D0E13EC18F00B0E556E0B0C66
:102488000A0E13EC18F00E010ED05550050AB3E0F1
:10249800030AB9E0010AD3E00E0AE3E0030AEAE01E
:1024A800010AEEE000D0C099556A1200E90E155CE9
:1024B800030E165801E3020C070E1524176E000EC2
:1024C8001620186ED89018321732D8901832173252
:1024D800D8901832173217501B6E1BC002F21B50CF
:1024E800030F546E030E1A6E31D0000E1A245BECE3
:1024F8000FF0DF6A1C6A1550161026E013C00EF0A4
:1025080014C00FF01D0E106EA2EC13F0196E1950C6
:1025180002E0195012001CC017F01DC018F0172A4D
:1025280002D0D8901836172EFCD7000E1A245BEC70
:102538000FF01850DF12134A142A1506D8A01606F1
:102548001C2A070E1C64D7D71B061A2A1B50CDE17C
:10255800000C010E2C6E78C02DF079C02EF0316A77
:102568001F0E306E01011F6B22D03006D8A0310635
:102578002A500F0B2F6E0A0E2F6002D0300E01D09A
:10258800370E2F26000E3024D96E010E3120DA6E58
:102598002FC0DFFF2C6A2D06D8A02E062A3A2B3A28
:1025A8000F0E2A162B50F00B2A120F0E2B1631BEC7
:1025B80012D0315003E1020E305C0DE32A502B108B
:1025C800D4E12C50D2E12EBE06D02E5002E12D04CB
:1025D80002E351B2CAD728C01FF029C020F0000E6C
:1025E8003024216E010E3120226E2DC023F02EC022
:1025F80024F094EF14F0010E2C6E78C02DF079C001
:102608002EF0306A1F0E2F6E01011F6B26D02F0689
:10261800D8A03006000E2F24D96E010E3020DA6EB5
:102628002AC00EF02BC00FF0116A0A0E106EA8EC2B
:1026380015F00E50300FDF6E2C6A2D06D8A02E062E
:102648002AC013F02BC014F0166A0A0E156E3EEC61
:1026580015F013C02AF014C02BF02F5030100DE0E5
:102668002A502B10D4E12C50D2E12EBE06D02E5089
:1026780002E12D0402E351B2CAD728C01FF029C0D5
:1026880020F0000E2F24216E010E3020226E2DC066
:1026980023F02EC024F094EF14F04DD834EC17F04A
:1026A8001C0E106E3B0EE82EFED7102EFCD743D81A
:1026B80034EC17F01C0E106E3B0EE82EFED7102ED1
:1026C800FCD739D834EC17F01C0E106E3B0EE82EF0
:1026D800FED7102EFCD7010E0E6E080E34EC17F044
:1026E8001C0E106E3B0EE82EFED7102EFCD7010EE6
:1026F8000E6E34EC17F01C0E106E3B0EE82EFED753
:10270800102EFCD7010E0E6E060E34EC17F01C0EC0
:10271800106E3B0EE82EFED7102EFCD7010E0E6E63
:102728000C0E34EC17F01C0E106E3B0EE82EFED784
:10273800102EFCD71200010E0E6E380C30D010503F
:10274800D96EDA6A5A040CD0DF6E000C1050D96EBC
:10275800DA6A020E04D01050D96EDA6A030E5A18DB
:102768001CE119D01050D96EDA6A5BC0DFFF000C8B
:102778001050D96EDA6A59C0DFFF000C1050D96EBC
:10278800DA6A58C0DFFF000C24D8F8A106D003D0BD
:1027980020D8F8A302D0010ED7D7000ED5D70EC087
:1027A80011F00FC012F01250D8A4020C1150640A94
:1027B800C6E0010ACBE0030ACEE0010AD3E00F0A23
:1027C800D7E0010ADBE0030ADFE0010AD8A4020C23
:1027D800DFD71050D96EDA6A0001120011501210BA
:1027E80003E01150121003E10F5008EF18F020EE2B
:1027F8000AF02CD8DE50DE1013E020EE0AF026D8BE
:1028080010EE03F01150E1261250E222DE50E65C91
:10281800E650800A176EDE50800A1758D8B01200AA
:1028280020EE03F013D8DF50136E11C0D9FF12C089
:10283800DAFFDF501324D96EDA6A0FC0DFFF20EE0B
:1028480003F004D8DE2A000EDD22000C1150D92630
:102858001250DA221200360EF66E300EF76E000EA7
:10286800F86E00EEEAF010EE0FF00900F5CFEEFF7B
:10287800E550E150FAE102EE00F010EEFFF0EE6AEA
:10288800E550E150FCE1E250FAE101EE00F0200EE3
:10289800EE6AE806FDE100EE60F06E0EEE6AE8060C
:1028A800FDE15D6A00EE51F00C0EEE6AE806FDE10E
:1028B8005E905E92000EF86E000131EF04F0176A28
:1028C800186A14507BEC0CF02A0A1DE1145084ECB1
:1028D8000CF015508AEC0CF0DECF17F0DECF18F0B4
:1028E8001AD017C00EF018C00FF0116A0A0E106E39
:1028F80082EC17F016500E24176E000E0F20186E7B
:10290800145084EC0CF014507BEC0CF0D00F166EC5
:10291800090E1664E6D717C014F018C015F0120097
:1029280051A003D022D8D6EC16F024AE02D0236AE8
:10293800246A266A276A0BD0106A200E0F6E1FC001
:1029480011F020C012F0F2EC13F0264A272A235087
:10295800265C2750800A256E2450800A2558ECE30F
:1029680051B0120002D8D6EF16F021C018F022C0DC
:1029780019F01FC01AF020C01BF012000001F8B1B6
:1029880004D0F60EDB6FFF0E03D0F20EDB6FFF0EE6
:10299800DC6FAE0E466E5F0E476EFF0E486EDBC0F4
:1029A80049F0DCC04AF03AEC16F0F8B304D0F60E61
:1029B800DD6FFF0E03D0F20EDD6FFF0EDE6F8E0EA1
:1029C800466E4F0E476EFF0E486EDDC049F0DEC002
:1029D8004AF03AEF16F0156E070E1516010E0E6E38
:1029E80015C013F0070E1316D8901336D890133667
:1029F800D8901334400934EC17F0166A0E6A165052
:102A08001124136E000E1220146E13C0F6FF14C0AA
:102A1800F7FF0800F55034EC17F0162A070E166475
:102A2800EDD7000E23EF18F04D6E4D505B18D8B45B
:102A38001200030E5A18D8B412004D500EE03EECA6
:102A480018F000090AE0040E0E6EE5EC15F0010E10
:102A58005B6EA00E466EFE0E0AD0050E0E6E000EC0
:102A6800E5EC15F000018D6B5B6A82EC15F0476EA2
:102A7800E5EF17F0186A196A155016101BE0010ED9
:102A8800176E04D0D89015361636172A16AEFAD710
:102A9800D890183619361550135C1650145805E39B
:102AA8001550135E1650145A1880D89016321532E5
:102AB800172EEED718C013F019C014F012004D6E7F
:102AC8004D505918D8B412004D500EE03EEC18F095
:102AD80000090AE0100E0E6E1EEC16F0010E596E7B
:102AE8008E0E466EFE0E07D0100E0E6E000E1EECF9
:102AF80016F0596A03D8476EE5EF17F0690E466E6F
:102B0800FE0E12000ED0000E0E6E16D8F76403D01B
:102B18000800F55002D040EC10F034EC17F0104AE1
:102B2800112A0AD8F76403D00800F55002D040EC07
:102B380010F00009E8E1120010C0F6FF11C0F7FF1D
:102B4800000EF86E0E0E12001050111017E0010E54
:102B5800126E04D0D89010361136122A11AEFAD758
:102B680010500E5C11500F5804E310500E5E1150B7
:102B78000F5AD89011321032122EF2D70EC00EF022
:102B88000FC00FF01200576A566A4D6A4E6A4DC060
:102B98000EF04EC00FF0106855EC16F000090BE16E
:102BA80058EC0EF0476E4DC048F04EC049F04B6AE5
:102BB8004A68E5EC17F04D4A4E2A040E4E5CE7E3EE
:102BC80012000F6E0E1C0001F915106E0F500E1436
:102BD800101210C0F9F0886A10C083FF0D0EE82E9D
:102BE800FED700D082820D0EE82EFED700D082924A
:102BF80088680D0EE82EFED700D0120088688296ED
:102C0800849A0D0EE82EFED700D08DCF12F0828662
:102C18000D0EE82EFED700D08DCF13F0848A0D0E4E
:102C2800E82EFED700D01250106E13500E6E10C052
:102C38000FF012000F6E0E1C5C14106E0F500E1465
:102C4800101210C05CF0886A10C083FF0D0EE82EC9
:102C5800FED700D082840D0EE82EFED700D08294D5
:102C680088680D0EE82EFED700D01200490E00012C
:102C7800CE6F46C0CFF0D26BD36BD96BDA6BCF0E69
:102C88003F6E406A47C041F048C042F0CE0E436EE6
:102C9800BDEC16F046500001D225D96EDA6ADF6A1B
:102CA8001200040E0F5C01E3000C310E7B6E0FC0A6
:102CB8007AFF0EC079FF10C07CFF7F8E7F98F29E4E
:102CC800550E816EAA0E816E8088F28E80B8FED76E
:102CD8007F9E7FB8000C010C0F6E116A0E5014E035
:102CE800010E106E03D0D8900E36102A0EAEFBD708
:102CF800D89011360E500F5C03E30E500F5E118012
:102D0800D8900E32102EF4D7115012004D6E4D503F
:102D18005818D8B412004D5007E0200E0E6E1EEC65
:102D280016F0010E586E06D0200E0E6E000E1EEC28
:102D380016F0586A7E0E466EFF0E476EE5EF17F0E6
:102D480095EC17F016500E5C1E6E17500F581F6E3C
:102D580018501058206E19501158216E1A501E5CC8
:102D68001B501F581C5020581D50215801E3010CBE
:102D7800000C41C044F042C045F00AD03FC032F0D8
:102D880040C033F0440E346E43C035F0D5EC0BF040
:102D980044C0F6FF45C0F7FF0800F550EFE13F6A71
:102DA800406A12001D6A1E6A0BD01CC00FF0106A20
:102DB8001AC011F01BC012F0F2EC13F01D4A1E2AC3
:102DC8001D501824D96E1E501920DA6EDF501C6E63
:102DD8001C50EBE1120098CF06F006AE03D0010EAE
:102DE800046E01D0046A069E065048EC17F0036E84
:102DF80003AE03D0010E056E01D0056A0450051814
:102E080001E0068E06501200EA0E0E6E106A0F6A76
:102E1800126A0F0E116EA8EC17F0050E0001EE6F86
:102E2800ED6BEC6FEB6BEA6FEF6F0A0EF06F050E50
:102E3800F16FF881F893050CAE0E466E2D0E476EB5
:102E4800FF0E486E3AEC16F08E0E466ED60E476EA2
:102E5800FE0E486EECC049F0EDC04AF03AEF16F0AD
:102E68000F6E84920E5002E0849001D084800FC0CF
:102E780083FF886A00D000D02AEC18F088688B0E8F
:102E8800E82EFED700D01200026E016A02B0012AB5
:102E980002B2012A02B4012A02B6012A02B8012AA2
:102EA80002BA012A02BC012A01B0028E02501200A5
:102EB8000F6E080E106E116AD8900F341134116E0F
:102EC800D8900F360E50115C02E30E50115E102E92
:102ED800F3D711501200AE0E466E0B0E476EFF0E62
:102EE800486E3AEC16F08E0E466EC40E476EFE0E15
:102EF800486EEFC049F04A6A3AEF16F00E501002D9
:102F0800F3CF12F0F4CF13F00E501102F350132642
:102F18000F501002F350132612C00EF013C00FF01A
:102F28001200F29E60C012F061C013F062C014F08B
:102F380063C015F0F28E12C00EF013C00FF014C06B
:102F480010F015C011F012000EC013F006D0135087
:102F5800D96EDA6A0FC0DFFF132A1106D8A012064D
:102F68001128F5E11228F3E11200016E600E0164E8
:102F780003D00150A90F1200400E016403D0015084
:102F8800C90F12000150D00F12000E6E0E5006E04D
:102F98000201018F0EC002F2030E546E050E556E2B
:102FA8000E01C089050C95EC17F00EC074F00FC027
:102FB80075F010C076F011C077F0010E0001876F30
:102FC800010C480E4C6E3F6A406A46C041F047C04B
:102FD80042F04C0E436EBDEF16F0026E0A0E026010
:102FE80003D00250300F02D00250370F016E01504B
:102FF8001200310E7B6E0FC07AFF0EC079FF7F8EF4
:1030080080807F9E7C5012000E6E5DA012000E0123
:10301800C0B91200C8A9FED70EC099FF1200036EEE
:10302800035048EC17F0036E03C099FF120000002C
:0D3038000000001E0A05000000000000015D
:10304600106E010E0E6E1050800934EF17F0848456
:1030560000D000D0849400D000D012000001602B74
:10306600000E612362236323000C0E01C59B31EC25
:1030760018F05E9211000001F8B181A3010C000C5A
:10FAB800000000000000000000000000000000003E
:10FAC8000000000000000000020304060708090AFD
:10FAD8000B0D0E0E0F1011121314141516171718FC
:10FAE80019191A1B1B1C1C1D1E1E1F1F202021213B
:10FAF80022222323242425252526262727282829AA
:10FB080029292A2A2B2B2C2C2C2D2D2E2E2F2F2F2A
:10FB180030303131323232333334343435353636AD
:10FB280037373738383939393A3A3B3B3B3C3C3D33
:10FB38003D3D3E3E3F3F3F404041414142424343BD
:10FB48004344444545454646474747484849494947
:10FB58004A4A4B4B4B4C4C4D4D4E4E4E4F4F5050CE
:10FB68005051515252535354545455555656575751
:10FB7800585859595A5A5A5B5B5C5C5D5D5E5E5FCA
:10FB88005F6060616162626263636363636363634E
:10FB9800636363636363636363636363636363632D
:10FBA800636363636363636363636363636363631D
:10FBB80063020502081808081C0205021804081048
:10FBC8001C0205020000000000111F1F1F1F1F1F3D
:10FBD8001F1111111F1F1F1F1F11111111111F1F9D
:10FBE8001F111111111111111F445241494E005298
:10FBF800554E20200044454741530046494C4C206F
:10FC0800005245414459004E6F2076616C6964206A
:10FC1800454550524F4D20626C6F636B20666F757F
:10FC28006E642C206C6F6164696E67206465666120
:10FC3800756C7473210D0A00454550524F4D20775D
:10FC480072697465206661696C65642C20616464FE
:10FC5800723D3078253034582C20646174613D3011
:10FC680078253032582E0D0A00454550524F4D2008
:10FC78007772697465204F4B2C20616464723D3043
:10FC880078253034582C20646174613D30782530F3
:10FC980032582E0D0A004D6F737420726563656EBD
:10FCA8007420454550524F4D20646174612069733A
:10FCB80020617420626C6F636B2025752E0D0A001D
:10FCC800536176696E672073657474696E67732013
:10FCD800746F20454550524F4D20626C6F636B2006
:10FCE80025752E0D0A00427574746F6E206C6F6E48
:10FCF800672070726573733A20253032580D0A00F8
:10FD08004E6F726D616C206379636C6520636F6DF3
:10FD1800706C6574652E0D0A004E6F726D616C20F3
:10FD28006379636C6520737461727465642E0D0A5F
:10FD3800004465676173206379636C6520636F6D48
:10FD4800706C6574652E0D0A00427574746F6E20B0
:10FD580072656C65617365643A20253032580D0A06
:10FD680000447261696E206379636C652073746105
:10FD7800727465642E0D0A004465676173206379A7
:10FD8800636C6520737461727465642E0D0A00419A
:10FD980075746F20647261696E20636F6D706C6535
:10FDA80074652E0D0A00427574746F6E207072654A
:10FDB800737365643A20253032580D0A0042757411
:10FDC800746F6E207265706561743A202530325800
:10FDD8000D0A002532750C43202532750C4320206E
:10FDE8002025753A2530327500496E746572727532
:10FDF800707420656E61626C652E0D0A0053746123
:10FE08007274757020636F6D706C6574652E0D0A61
:10FE1800004C6F6164696E672073657474696E67FE
:10FE2800732E0D0A0025753A25303275202052456B
:10FE380043495243202020200025753A2530327549
:10FE480020202020202020202041495200415554C4
:10FE58004F20445241494E202025753A25303275AD
:10FE6800004865617465722064697361626C6564D9
:10FE78002E0D0A002A2A2A20537461727475702084
:10FE88002A2A2A0D0A0052656369726320656E6129
:10FE9800626C65642E0D0A004865617465722065A0
:10FEA8006E61626C65642E0D0A00556C7472617324
:10FEB8006F6E696373204F46460D0A002532752020
:10FEC8005345432020202020204241434B00253227
:10FED80075204D494E2020202043414E43454C007B
:10FEE8002532750C43202573202025753A2530329C
:10FEF8007500556C747261736F6E696373204F4E31
:10FF08000D0A004155544F20445241494E2054494E
:10FF18004D4520002121454550524F4D2045524125
:10FF280053452121002D2D2D4155544F204445473F
:10FF380041532D2D2D004445425547205458204506
:10FF48004E41424C45440025732020204155544FD2
:10FF580020445241494E002573202020572D4C56ED
:10FF68004C2050524F5400454550524F4D2073611C
:10FF78007665210D0A0041697220656E61626C65C3
:10FF8800642E0D0A0057445420656E61626C652E1C
:10FF98000D0A0049444C45206D6F64652E0D0A001A
:10FFA8004144432073746172742E0D0A00486561E0
:10FFB800746572206F66660D0A0048656174657223
:10FFC800206F6E0D0A0045524153494E472E2E2E82
:10FFD800200053617665204F4B210D0A00286E756D
:10FFE8006C6C2900444F4E4521004F4E20004F466F
:07FFF80046002532750000F0
:020000040030CA
:0C00000089FFFDF4BFFFFFFFFFFFFFFFC3
:00000001FF
