:040800002FEF04F0E2
:060808005E8266EF18F0AD
:100818005E80D8CF09F0E8CF0AF0E0CF0BF0D9CF4F
:100828000CF0DACF0DF00E01C0B9C8A903D000EC66
:1008380012F005D0C0BBC8AB02D058EC10F00DC008
:10084800DAFF0CC0D9FF0BC0E0FF0AC0E8FF09C0FF
:10085800D8FF5E90100035EF14F0826A836A380E74
:10086800846E0F010A6B126B1A6BE10E876E886833
:10087800980E896EC10E0C6F146B1C6B0B6B136991
:10088800180E1B6F286B09691169196908691069C5
:100898001869080E256F170E0E01B06F090EF86F54
:1008A800130EB26F0F0EF56F140EB36F100EF66FB6
:1008B8000F01076B066B056B0F6B0E6B0D6B176BE0
:1008C800166B156B246B236B226B0E68000E12ECF3
:1008D80016F00E68000E2FEC16F08288F28A480E89
:1008E8009E6E900E9C6E260E9D6E480E9A6E9B6AAA
:1008F8009D8A9C880E01B89BB899C08B0F015B9F9D
:100908000E01BE91BE93C691C693400E616E0F0153
:100918005A6B050E576F586B596B546B6B0E556FAE
:10092800070E566F606A536B080E526F516B940E28
:100938005B6F030E0001EA6F210EE96FB30EE82E1C
:10094800FED7E92FFCD7EA2FFAD757EC13F0E90EB8
:10095800116EFB0E126E000EF5EC14F0E10E116E26
:10096800FB0E126E010EF5EC14F0D90E116EFB0E93
:10097800126E020EF5EC14F0D10E116EFB0E126E13
:10098800030EF5EC14F0C90E116EFB0E126E040E78
:10099800F5EC14F0C10E116EFB0E126E050EF5EC9F
:1009A80014F0B90E116EFB0E126E060EF5EC14F073
:1009B8004CEC16F00EA817D05D80000E51EC18F024
:1009C8001C0E0001E96F3A0EE82EFED7E92FFCD77E
:1009D80000D03E0E106EFF0E116EB3EC15F04CEC0D
:1009E80016F00EB8FCD77C0E466EFE0E476E13EC62
:1009F80018F04CEC16F00EAA65D0000E51EC18F069
:100A08001C0E0001E96F3A0EE82EFED7E92FFCD73D
:100A180000D01C0E106EFF0E116EB3EC15F00A0E0E
:100A28000001ED6F2CD0400E51EC18F01C0E0001A7
:100A3800E96F3A0EE82EFED7E92FFCD700D0920EC8
:100A4800466EFA0E476EFF0E486EEDC049F04A6AD0
:100A580068EC16F020DAB3EC15F0160E0001EA6F18
:100A6800480EE96F150EE82EFED7E92FFCD7EA2FBE
:100A7800FAD74CEC16F00EAA04D00001ED07ED51A0
:100A8800D2E10001ED511AE1400E51EC18F01C0EB4
:100A98000001E96F3A0EE82EFED7E92FFCD700D007
:100AA800CE0E106EFF0E116EB3EC15F0F4EC15F0CF
:100AB800EC0E106EFF0E116EB3EC15F04CEC16F048
:100AC8000EBAFCD7190E466EFE0E476E13EC18F0E0
:100AD800ABEC0CF0FE0ED36ED26A540ED56E0E013E
:100AE800B58BC59BBD8B800ED46EF10E466EFD0E88
:100AF800476E13EC18F0F28CF28EA80E466EFF0EBD
:100B0800476E13EC18F0C3EC17F09FD98D0E466EA4
:100B1800FF0E476E13EC18F00E01CD81050E466EE0
:100B2800FE0E476E13EC18F065EC0FF04CEC16F067
:100B38000EC051F00FC052F057EC07F052A252B05D
:100B480004D052B402D0030E17D052A252B004D02F
:100B580052A402D0020E10D052A252A004D052A425
:100B680002D0010E09D052B252A005D052A403D02F
:100B78000001896B03D0040E0001896F020E8919E8
:100B880008E15DB40ED0080E0E6E12EC16F05D840E
:100B980008D05DA406D0080E0E6E000E12EC16F0FA
:100BA8005D940E01C6A316D05DA20AD05D92800E98
:100BB8000E6E000E12EC16F032D9F5CF81F008D087
:100BC8005D82800E0E6E12EC16F029D9F5CF80F0FA
:100BD8000E01C69364C016F065C017F066C018F021
:100BE80067C019F01A6A010E3BD9D2EC16F0000959
:100BF80003E0C3EC17F029D95B5004E1C3EC17F00C
:100C080033D988D068C016F069C017F06AC018F0E8
:100C18006BC019F01A6A040E23D9D2EC16F0000939
:100C280079E0C3EC17F020D95B0413E1EEC00EF0B5
:100C3800EFC00FF034D9B0EC17F01FD96BE3080EF2
:100C4800466EFD0E476E13EC18F0000E36EC11F0F0
:100C580061D0020E5B1845E1F0C00EF0F1C00FF054
:100C68001ED9B0EC17F009D90AE3390E466EFD0E0D
:100C7800476E13EC18F0000E36EC11F04BD08E5185
:100C880022E08E078E511FE18F510FE0F4C08EF0E5
:100C98008F6B200E0E6E000E12EC16F0B20E466E22
:100CA800FE0E476E13EC18F00ED0F5C08EF0010E54
:100CB8008F6F200E0E6E12EC16F0FA0E466EFE0EB8
:100CC800476E13EC18F0000182A106D0020E0E6EDA
:100CD800000E12EC16F01ED0020E0E6E12EC16F07C
:100CE80019D0030E5B1816E10001895111E1FCA32C
:100CF8000FD08D510FE08D078D510CE1970E466E88
:100D0800FD0E476E13EC18F0000E36EC11F002D011
:100D1800F3C08DF01EEC15F000090EE1000E45EC55
:100D280015F0000E90EC15F05B0403E0020E5B1862
:100D380003E1000E36EC11F05C5024E00001905104
:100D480010E08151F25D0DE2906BB50E466EFF0E1C
:100D5800476E13EC18F0010E0E6E000E12EC16F032
:100D680011D090510FE1F251815D0CE2010E906FAC
:100D7800C20E466EFF0E476E13EC18F0010E0E6E93
:100D880012EC16F000018A5129E078C016F079C0FB
:100D980017F07AC018F07BC019F01A6A280E60D8CC
:100DA800D2EC16F000091AE06F0E466EFF0E476E81
:100DB80013EC18F0D0EC0DF000018A6B0FD0F8ECB2
:100DC8000AF017D041EC0DF014D0C8EC14F011D093
:100DD8009DEC17F00ED04EEC17F00BD000018C51A3
:100DE800EEE0010AEFE0030AF0E0010AF1E0070A89
:100DF800F2E0000E51EC18F048D8CDEC10F0B20E2D
:100E0800106E116AB3EC15F0400E51EC18F03DD895
:100E1800CDEC10F040D8B3EC15F0040085D66DCFBA
:100E2800E9F06ECFEAF00001D890EA33E933D890C0
:100E3800EA33E933E951EB6FEC6BB90EEB25F66E4B
:100E4800FA0EEC21F76E080012000EC064F00FC015
:100E580065F010C066F011C067F00F015B811200E9
:100E68001B6E1C6A1D6A000C0EC068F00FC069F08A
:100E780010C06AF011C06BF012000001824B832B86
:100E88000E50825D0F5083591200050E166E176AB8
:100E9800186A196A000C920E106E116A1200116A13
:100EA8003C0E106E3C0C0001D26B51C0D3F0D3B392
:100EB800D22BD3B9D22BD3B7D22BD3B1D22BD3B514
:100EC800D22BD3BBD22BD20504E1885135E0D319FC
:100ED80033E0D35117E1885115E0510E466EFD0EEF
:100EE800476E88C048F0496A13EC18F0000188A5DD
:100EF80009D08C5107E1875105E15B5003E1010EF0
:100F080036EC11F0C3EC17F00EC070F00FC071F0A2
:100F180010C072F011C073F070C06CF071C06DF049
:100F280072C06EF073C06FF0010E00017F6F5E0E2D
:100F38007E6F886B876B1200885101E035D124DA07
:100F4800320E1A6E000E1B6A1C6A1D6AD2EC16F06D
:100F58000009D8B41200AE0E466EFD0E1EDA13EC70
:100F680018F00001D3A15ED08C510EE15B0EF26146
:100F780005D0050EF22705EC18F054D05F0EF219D3
:100F880051E05F0EF26FF7D78C0520E1020E5B1877
:100F98000DE1F15105E15B0EF05D02E20DDAEBD7F0
:100FA8005F0EF019F1113EE010DAE5D7570EEE5D4D
:100FB800020EEF5903E2EE4BEF2BDDD7570EEE1979
:100FC80003E1020EEF192EE0EDD9D5D7020E8C19E8
:100FD8000DE1FCB103D04F6A4F2A01D04F6A0001DE
:100FE800FC514F18FE0B4F18FC6FC5D7040E8C1917
:100FF8000AE1F15103E15B0EF05DD0E35F0EF019F9
:10100800F111D2E10FD0030E8C190CE15B0EF361E4
:1010180003D0050EF327AFD75F0EF31903E05F0E79
:10102800F36FA9D7D3A956D08C510EE1090EF265FA
:1010380005D0050EF25F05EC18F04CD0050EF2193C
:1010480049E0050EF26FF7D78C0517E1020E5B1821
:101058000DE1F15103E10A0EF05D02E3A8D9EBD7E7
:10106800050EF019F11136E0ACD9E5D7EE51EF11C4
:1010780031E0EE07D8A0EF07DED7020E8C190EE19B
:10108800FCB303D04F6A4F2A01D04F6A4F46000184
:10109800FC514F18FD0B4F18FC6FCDD7040E8C195F
:1010A8000AE1F151DBE10A0EF05DD8E2050EF01914
:1010B800F111DAE10FD0030E8C190CE1090EF3657A
:1010C80003D0050EF35FB7D7050EF31903E0050E3D
:1010D800F36FB1D7D3AB14D08C5102E1010E0BD012
:1010E8008C0502E18C6B0CD0020E8C19FBE0030E10
:1010F8008C1903E1020E8C6F03D0040E8C19F2E0F8
:10110800D3A51CD08C510CE15B0403E0020E5B18E4
:1011180015E1000E36EC11F0010E0001876F0ED0BC
:101128008C050CE0020E8C1909E0040E8C1906E1FE
:10113800020E36EC11F000018C6BEED7D3A31DD054
:101148008C510DE1030E5B1804E1000E36EC11F032
:1011580014D05B5012E1030E36EC11F00ED08C0562
:1011680007E15A50010ED8A4000E90EC15F005D0F6
:10117800020E8C1902E1030E8C6F0001D3A711D067
:101188008C5107E15C50010ED8A4000E45EC15F017
:1011980008D08C0506E15950010ED8A4000EB8EC11
:1011A80016F0D3C088F01200EFD81A6A040E34EC97
:1011B80007F0D2EC16F000091CE00001875119E194
:1011C800EE0E466EFC0EE9D813EC18F00001D3AB16
:1011D80006D08C5102E08C0502E1020E8C6FD3A57B
:1011E80006D08C5104E15B5002E1040E8C6F010EB5
:1011F800876F6CC016F06DC017F06EC018F06FC026
:1012080019F07EC01AF07FC01BF01C6A1D6AD2EC70
:1012180016F00009D8B41200C50E466EFD0EBDD8F2
:1012280013EC18F00001D3A150D08C510EE15B0EE5
:10123800F26105D0050EF22705EC18F046D05F0ED6
:10124800F21943E05F0EF26FF7D78C0522E1020E28
:101258005B180DE1F15105E15B0EF05D02E2ACD8DF
:10126800EBD75F0EF019F11130E0AFD8E5D74E0E8D
:10127800EE5D020EEF5905E20A0EEE27000EEF238F
:10128800DBD7570EEE1903E1020EEF191EE08AD8DC
:10129800D3D7040E8C190AE1F15103E15B0EF05D1E
:1012A800DEE35F0EF019F111E0E10FD0030E8C19A7
:1012B8000CE15B0EF36103D0050EF327BDD75F0E7B
:1012C800F31903E05F0EF36FB7D7D3A94ED08C5153
:1012D8000EE1090EF26505D0050EF25F05EC18F077
:1012E80044D0050EF21941E0050EF26FF7D78C05D0
:1012F80020E1020E5B180DE1F15103E10A0EF05DE9
:1013080002E355D8EBD7050EF019F1112EE059D8A4
:10131800E5D7EF5103E10A0EEE5D05E30A0EEE5F35
:10132800000EEF5BDBD7EE51EF111FE0EE6BEF6BBA
:10133800D5D7040E8C190AE1F151E3E10A0EF05DEC
:10134800E0E2050EF019F111E2E10FD0030E8C195D
:101358000CE1090EF36503D0050EF35FBFD7050E48
:10136800F31903E0050EF36FB9D7C3EC17F00EC0FD
:101378006CF00FC06DF010C06EF011C06FF000017E
:101388007F6B960E7E6F960C70C016F071C017F0CA
:1013980072C018F073C019F01200476ED3C048F03D
:1013A800496A1200020EEF6F570EEE6F570C050ECA
:1013B800F05F000EF15B000C050EF027000EF12324
:1013C800000CF16B050EF06F050CF16B5F0EF06F02
:1013D8005F0C195014E17E0E185CD8B0020C06514F
:1013E8001A6E1B6A18C01CF019C01DF0D8901C3664
:1013F8001D361A501C1803E11B501D1801E0020C81
:10140800060E556E070E2A6EE6D0D00E161825E188
:10141800070E171822E1000E2A245CEC0FF0DF50AB
:10142800226E236A2A2A2250236E226A000E2A2458
:101438005CEC0FF0DF5022122A2A580E225C020EB2
:10144800235804E3020E236E570E226E22C0EEF0DC
:1014580023C0EFF005EC18F0B9D0D10E16182AE128
:10146800070E171827E1000E2A245CEC0FF0DF5056
:10147800286E296A2A2A2850296E286A000E2A24EA
:101488005CEC0FF0DF5028122A2A295003E1600E85
:10149800285C03E3296A5F0E07D0295006E1050E90
:1014A800285C03E2296A050E286E28C0F0F029C0DE
:1014B800F1F0D0D7D20E161814E1070E171811E163
:1014C8008FD85CEC0FF0DF50246E2A2A5F0E24645C
:1014D80001D003D0050E246001D0246E24C0F3F09F
:1014E800B9D7D30E161814E1070E171811E178D8DA
:1014F8005CEC0FF0DF50256E2A2A5F0E256401D0C0
:1015080003D0050E256001D0256E25C0F2F0A2D7C4
:10151800D40E161814E1070E171811E161D85CEC07
:101528000FF0DF50266E2A2A630E266401D003D0FE
:10153800265002E1010E266E26C0F4F08BD7D50E98
:10154800161814E1070E171811E14AD85CEC0FF0D1
:10155800DF50276E2A2A630E276401D003D0275054
:1015680002E1010E276E27C0F5F074D7340E161865
:1015780015E1080E171812E1000E2A245CEC0FF092
:10158800DF501E6E2DD85CEC0FF0DF501F6E2A2A3C
:101598001FC00EF01E5012EC16F018D0350E16189B
:1015A80003E1080E1718D8A4020C000E2A245CECDC
:1015B8000FF0DF50206E14D85CEC0FF0DF50216E76
:1015C8002A2A21C00EF020502FEC16F01806D8A0B9
:1015D8001906164A172A1850191001E016D7000CD8
:1015E8002A2A000E2A241200020E5B1805E0EEC01B
:1015F800DFF0EFC0E0F004D0F0C0DFF0F1C0E0F0C1
:10160800DFC013F0E0C014F0C8EC0DF06BEC15F07F
:1016180013500001E76F020E5B1805E0EEC0E1F021
:10162800EFC0E2F004D0F0C0E1F0F1C0E2F0E1C0B8
:101638000EF0E2C00FF0CCEC0DF0D5EC15F00E502A
:101648000001E86F090EE76501D0E76F630EE865F2
:1016580001D0E86FA6EC0DF06BEC15F0135000010B
:10166800E56FAFEC0DF0D5EC15F0B8EC0DF06BECC8
:1016780015F013500001E66F090EE56501D0E56F1E
:10168800630EE6651AD0E66F18D0FCB152A204D0FA
:10169800030EE36FFC0E0FD0090EE36FFC0E0BD0A8
:1016A800F70EE36FFB0E07D0FD0EE36FFB0E03D0C2
:1016B800F10EE36FFB0EE46F08D05B50E6E0010A21
:1016C800EFE0030AF1E0010AF3E0030E5B1823E1FF
:1016D800FCA321D03C0E0E6E8D519EEC16F000013D
:1016E800E86F3C0E0E6E8D518AEC17F00001E76F23
:1016F800090EE86501D0E86FB20E466E550E476ECA
:10170800FE0E486EE8C049F04A6AE7C04BF04C6AE2
:1017180068EC16F015D0B20E466EE80E476EFE0E57
:10172800486EF2C049F04A6AE3C04BF0E4C04CF09E
:10173800E7C04DF04E6AE8C04FF0506A68EC16F00A
:10174800920E466EDB0E476EFD0E486E80C049F065
:101758004A6A81C04BF04C6AE5C04DF04E6AE6C05B
:101768004FF0506A68EC16F0030E891902E10B0E6F
:101778000DD0020E891902E10A0E08D0890502E18E
:10178800090E04D08951080ED8A4450E9C6F5B043D
:1017980004E0020E5B18D8A4120082A11200200EE9
:1017A8009F6F200C3450A4D8250A01E096D03450FD
:1017B800A8D800017D6B7C6B7CC053F03C6A0CD0D0
:1017C800538234509ED808D0010E3C6E05D0345058
:1017D8008FD8300AF5E0F8D73C50F9E034C014F05F
:1017E80035C015F069EC14F014C07CF015C07DF01C
:1017F80000017DAF05D053807C6D7D1FD8B07D2B57
:101808003450D96EDA6ADECF3DF0DDCF3EF087D8AE
:10181800580A03E084D8750A2CE1355078D8DECF11
:1018280038F0DECF39F03D28366E000E3E20376E98
:101838003450D96EDA6A36C0DEFF37C0DDFF14D007
:1018480032C028F033C029F038C02AF039C02BF054
:1018580005EF13F032C028F033C029F038C02AF061
:1018680039C02BF0B3EF12F05AD8580AF3E02D0A1A
:10187800E7E03C6A34503CD8730A09E13450D96E29
:10188800DA6ADE2A000EDD22010E3C6E15D03450D5
:101898002FD86C0A11E153D8362A48D86C0A0CE1C3
:1018A8004ED8020E362642D8730A06E13450D96E55
:1018B800DA6A030EDE26E6D73C500CE032C018F098
:1018C80033C019F0355023D8DECF1AF0DECF1BF025
:1018D800E0EF0FF0345015D8000C345009D80F6ED3
:1018E800106A32C011F033C012F0F8EC13F0F2D7DE
:1018F800D96EDA6ADECFF6FFDDCFF7FF0800F550C4
:101908001200D96EDA6ADE2A000EDD22000CD96ECA
:10191800DA6A020EDF26DF5CD96EDA6A12003DC091
:10192800F6FF3EC0F7FF0800F5501200000E372200
:1019380036C0F6FF37C0F7FF0800F55012003450E4
:10194800D96EDA6ADECF36F0DDCF37F01200586A8A
:10195800576A0001D46BD451100DF3CF0EF0F4CFB9
:101968000FF02BEC18F0D26FD22918E0550ED219CF
:1019780007E1AA0E571812E0D4C058F0550E09D046
:10198800AA0ED21907E1550E571808E0D4C058F02E
:10199800AA0E576ED42B3F0ED465DDD7575008E1F9
:1019A8000F0E466EFC0E476E13EC18F036EF17F06C
:1019B8009E0E466EFC0E476E58C048F0496A13ECFE
:1019C80018F00001D36BD351EE0FD96EDA6A585074
:1019D8004D6E4E6A4D3A4E3AF00E4E164D500F0B64
:1019E8004E12F00E4D16D3514D26000E4E224D28A4
:1019F8000E6E000E4E200F6E2BEC18F0DF6ED32B00
:101A08000E0ED365E0D75F0EF26501D003D0050E48
:101A1800F26101D0F26FF15103E1600EF05D03E372
:101A2800F16B5F0E07D0F15106E1050EF05D03E2A0
:101A3800F16B050EF06F580EEE5D020EEF5902E3E2
:101A4800D6EC09F05F0EF36501D003D0050EF36103
:101A580001D0F36F630EF46501D003D0F45102E1B5
:101A6800010EF46F630EF56502D0F56F630CF55146
:101A7800D8A41200010EF56F010C020E5B1805E0E8
:101A8800EEC0DFF0EFC0E0F004D0F0C0DFF0F1C04E
:101A9800E0F0DFC013F0E0C014F076D86BEC15F07E
:101AA80013500001E36F020E5B1805E0EEC0E1F091
:101AB800EFC0E2F004D0F0C0E1F0F1C0E2F0E1C024
:101AC8000EF0E2C00FF064D8D5EC15F00E5000010E
:101AD800E46F090EE36501D0E36F630EE46501D09E
:101AE800E46FB20E466E410E476EFE0E45D868ECA6
:101AF80016F028D86BEC15F013500001E36F2BD8C3
:101B0800D5EC15F031D86BEC15F013500001E46FEB
:101B1800090EE36501D0E36F630EE46501D0E46F5D
:101B2800920E466E2D0E476EFE0E26D868EC16F005
:101B3800595002E03E0EBE6F5A50D8B412003E0E05
:101B4800976F3E0C82C013F083C014F00E0E166E11
:101B5800100E156E100C0E0E116E100E106E82C047
:101B68000EF083C00FF0100C0EC013F00FC014F06D
:101B7800166A3C0E156E3C0C486EE3C049F04A6A82
:101B8800E4C04BF04C6A1200166A3C0E156E3C0C11
:101B9800116A3C0E106E3C0C5828506E575003E1E9
:101BA800506A550E576E400E501807E1550E5718DB
:101BB800AA0ED8A4550E576E506AC80E466EFC0E73
:101BC800476E50C048F0496A13EC18F05050100D99
:101BD800F3CF0EF0F4CF0FF057C010F083EC16F0EF
:101BE800000903E162D853D827D05BD850D84B6A94
:101BF80013EC18F04F6A50504D6E4E6A4D3A4E3AFB
:101C0800F00E4E164D500F0B4E12F00E4D164F5053
:101C18004D26000E4E224D280E6E000E4E200F6EE1
:101C28004F50EE0FD96EDA6ADF50106E83EC16F063
:101C3800000905E13AD814D84B6A13EF18F031D8E7
:101C48000FD84B6A13EC18F04F2A0E0E4F64D3D7F7
:101C580050C058F0DA0E466EFF0E476E13EF18F0BC
:101C6800476E5050100DF3CF4DF0F4CF4EF04F505B
:101C78004D26000E4E224D28486E000E4E20496E0D
:101C88004F50EE0FD96EDA6ADF504A6E1200476E77
:101C98005050100DF3CF48F0F4CF49F057C04AF038
:101CA8001200710E466EFC0E1200400E466EFC0EBF
:101CB8001200115003E17E0E105C01E3020C10507B
:101CC8001024026F10507AD8126E70D0200E0E18A1
:101CD8000FE14E0E0F180CE1000E12245CEC0FF011
:101CE80083C0DFFF67D85CEC0FF082C0DFFF58D0FD
:101CF800210E0E180EE14E0E0F180BE1000E1224E5
:101D08005CEC0FF0DF6A56D85CEC0FF08DC0DFFF9B
:101D180047D0220E0E180EE14E0E0F180BE1000EE2
:101D280012245CEC0FF0DF6A45D85CEC0FF08EC033
:101D3800DFFF36D0230E0E180FE14E0E0F180CE100
:101D4800000E12245CEC0FF080C0DFFF33D85CEC8F
:101D58000FF081C0DFFF24D0240E0E180FE14E0EC5
:101D68000F180CE1000E12245CEC0FF052C0DFFFDC
:101D780021D85CEC0FF051C0DFFF12D0250E0E18F1
:101D880003E14E0E0F18D8A4020C000E12245CECCE
:101D98000FF0FDC0DFFF0ED85CEC0FF091C0DFFF45
:101DA800122A1006D8A011060E4A0F2A1050111038
:101DB8008DE1000C122A000E12241200020DF350BD
:101DC800030F556E030C115003E17E0E105C01E306
:101DD800020C10501024026F1050E2EC0EF0126E3C
:101DE80063D0D00E0E180DE1070E0F180AE1000E91
:101DF80012245ED8EFC0DFFF60D85AD8EEC0DFFFEC
:101E08004DD0D10E0E180EE1070E0F180BE1000E83
:101E180012244ED80001F151DF6E4FD849D8F0C0D6
:101E2800DFFF3CD0D20E0E180CE1070E0F1809E1A7
:101E3800000E12243DD8DF6A40D83AD8F3C0DFFF3D
:101E48002DD0D30E0E180CE1070E0F1809E1000E65
:101E580012242ED8DF6A31D82BD8F2C0DFFF1ED06B
:101E6800D40E0E180CE1070E0F1809E1000E12240B
:101E78001FD8DF6A22D81CD8F4C0DFFF0FD0D50ED8
:101E88000E1803E1070E0F18D8A4020C000E122436
:101E98000FD8DF6A12D80CD8F5C0DFFF122A100657
:101EA800D8A011060E4A0F2A105011109AE1000C02
:101EB800D96EDA6A020EDA221200122A000E1224F1
:101EC8001200040E561857E01200060E551815E1B8
:101ED800042909E1055107E15ED869D8010ED46FDC
:101EE8009CEC11F045D0045108E1055106E153D8A6
:101EF8005ED8D46B9CEC11F03BD0030E39D0060EA3
:101F08005518FBE148D8136ED5C014F04AD8156EA1
:101F1800D7C016F060EC12F02BD0060E5518EDE184
:101F28003AD80E6ED5C00FF03CD8106ED7C011F05D
:101F38005DEC0EF01DD0060E5518DFE12CD80E6EA4
:101F4800D5C00FF02ED8106ED7C011F0E7EC0EF008
:101F58000FD0080E5564D1D71ED8166ED5C017F00D
:101F680020D8186ED7C019F0EDEC09F001D0010E99
:101F78000001D96F0DD002010151010AC0E0020A27
:101F8800DAE0070ACAE0010AA0E0150AE2E0EFD7A2
:101F9800D951F7EF17F002510001D56F0201035133
:101FA800120004510001D76F02010551120000010F
:101FB800D26FD5C0D3F012001AC022F01BC023F094
:101FC8002250231004E1E50E226EFF0E236E246AD0
:101FD800256A02D0244A252A245022241C6E255022
:101FE80023201D6E1CC0F6FF1DC0F7FF000EF86E03
:101FF8000E0EF76403D00800F55001D03ED8000952
:10200800E9E124C01EF025C01FF07CC020F07DC08F
:1020180021F053B020D005D03FD8F8EC13F0244A73
:10202800252A31D818E2F8D722C0F6FF23C0F7FFD7
:10203800000EF86E0E0EF76403D00800F55001D0BC
:102048001CD80F6E106A18C011F019C012F0F8EC05
:1020580013F0224A232A1E06D8A01F061E28E4E1F0
:102068001F28E2E153A0120005D016D8F8EC13F0AF
:10207800244A252A08D8F9E31200F6CFE1FFF7CF62
:10208800E2FFE75012002050245C2550800A1C6EA5
:102098002150800A1C581200106A200E0F6E18C0BA
:1020A80011F019C012F0200C9CA203D09C989C88B7
:1020B80012001DEC17F0086E9CA408BE12000E0159
:1020C800C0B91200030E566401D0030C3A0E08186A
:1020D80006E1556A0001856B010E566E010C0D0E66
:1020E80008180AE1560403E1030E556002D0566A47
:1020F8001200030E566E030C0A0E08180AE1030EAE
:102108005618F5E100018551F2E15506040E566EA8
:10211800040C08C007F0D00E0726090E076409D082
:1021280008C007F0200E07129F0E0726060E07604C
:10213800060C560410E15528DAE0000E55245CEC34
:102148000FF00850E7EC17F0076E0738F00BDF6E5A
:10215800020E566E020C020E5618D8A41200085031
:10216800E7EC17F0076E000E55245CEC0FF00750F3
:10217800DF12555005E10001865102010019B7E14F
:10218800000E55245CEC0FF0DF5000018527552A1E
:10219800A3D7C3EC17F00EC022F00FC023F010C075
:1021A80024F011C025F0165017101810191005E169
:1021B800010E166E176A186A196A161C1A6E171C11
:1021C8001B6E181C1C6E191C1D6E22501A5C2350A5
:1021D8001B5824501C5825501D5820E32BD0221C76
:1021E8001A6E231C1B6E241C1C6E251C1D6E1A5097
:1021F800165C1E6E1B5017581F6E1C501858206E08
:102208001D501958216EC3EC17F01E500E5C1F505C
:102218000F582050105821501158E1E3C3EC17F023
:1022280022500E5C23500F58245010582550115836
:10223800D6E21200C3EC17F022500E5C1A6E23503F
:102248000F581B6E245010581C6E255011581D6EC7
:1022580016501A5C17501B5818501C5819501D5806
:10226800E9E312004E6E5B18D8B412004E5019E123
:1022780000018F6B000E45EC15F0000E90EC15F088
:10228800000EB8EC16F0370E0E6E000E12EC16F0BB
:102298000E68000E2FEC16F05B6A9B0E466EFF0E62
:1022A8003CD04E0410E15B500EE11EEC15F0000925
:1022B800D8B4120035D812EC16F0010E5B6E210E60
:1022C800466EFD0E2AD0020E4E1812E15B5010E148
:1022D8001EEC15F00009D8B4120022D812EC16F042
:1022E800F5C08EF0020E5B6E800E466EFD0E15D0A8
:1022F800030E4E18D8A412005B50D8A412005C50EC
:10230800D8A41200030E5B6EF3C08DF0040E0E6E9F
:102318002FEC16F0690E466EFD0E476E13EF18F09F
:102328000001826B836B010E8F6F220E0E6E220CE2
:1023380048D0D45106E05B505EE1010E36EC11F056
:10234800000C5B0458E1000E36EC11F0000CD4517F
:1023580006E05B5050E1020E36EC11F0000C020E64
:102368005B1849E1000E36EC11F0000CD45106E080
:102378005B5041E1030E36EC11F0000C030E5B18C4
:102388003AE1000E36EC11F0000CD45145EC15F092
:10239800000CD45190EC15F0000CD451B8EC16F0A8
:1023A800000CD4B102D0FC9102D00001FC8105ECF4
:1023B80018F0000CD4B102D0FC9302D00001FC83C9
:1023C800F6D7D2C04FF0D3C050F05050D8A4020C6A
:1023D8004F50640AAEE0010ABAE0030AC7E0010AF6
:1023E800D4E00F0AD6E0010AD8E0030ADAE0010ACD
:1023F800D8A4020CDFD7000C4ED03A0E41EC18F0EE
:10240800546A0001846B060E566E060C555054181B
:102418000BE10001846D84390F0B1FEC18F041ECBF
:1024280018F0090E566E090C000E54245CEC0FF0DF
:10243800DF50046E04380F0B1FEC18F041EC18F055
:10244800070E566E070C000E54245CEC0FF0DF509C
:102458000F0B1FEC18F041EC18F0000E54245CEC44
:102468000FF0DF5000018427542ACDD70001845192
:102478000F0B1FEC18F041EC18F00A0E566E0A0C00
:102488000D0E41EC18F00B0E566E0B0C0A0E41ECBB
:1024980018F00E010ED05650050AAFE0030AB6E058
:1024A800010AD1E00E0AE2E0030AEAE0010AEEE0DE
:1024B80000D0C099566A1200E90E155C030E165832
:1024C80001E3020C070E1524176E000E1620186E75
:1024D800D89018321732D89018321732D89018324C
:1024E800173217501B6E1BC002F21B50030F556E9C
:1024F800030E1A6E31D0000E1A245CEC0FF0DF6A5E
:102508001C6A1550161026E013C00EF014C00FF008
:102518001D0E106EA8EC13F0196E195002E0195038
:1025280012001CC017F01DC018F0172A02D0D8904E
:102538001836172EFCD7000E1A245CEC0FF0185032
:10254800DF12134A142A1506D8A016061C2A070EED
:102558001C64D7D71B061A2A1B50CDE1000C010EAC
:102568002C6E7CC02DF07DC02EF0316A1F0E306EAF
:1025780001011F6B22D03006D8A031062A500F0B5C
:102588002F6E0A0E2F6002D0300E01D0370E2F2684
:10259800000E3024D96E010E3120DA6E2FC0DFFF15
:1025A8002C6A2D06D8A02E062A3A2B3A0F0E2A1688
:1025B8002B50F00B2A120F0E2B1631BE12D03150B1
:1025C80003E1020E305C0DE32A502B10D4E12C50AD
:1025D800D2E12EBE06D02E5002E12D0402E353B202
:1025E800CAD728C01FF029C020F0000E3024216E61
:1025F800010E3120226E2DC023F02EC024F09AEF58
:1026080014F0010E2C6E7CC02DF07DC02EF0306AC7
:102618001F0E2F6E01011F6B26D02F06D8A0300683
:10262800000E2F24D96E010E3020DA6E2AC00EF06B
:102638002BC00FF0116A0A0E106ED5EC15F00E5073
:10264800300FDF6E2C6A2D06D8A02E062AC013F094
:102658002BC014F0166A0A0E156E6BEC15F013C039
:102668002AF014C02BF02F5030100DE02A502B10F8
:10267800D4E12C50D2E12EBE06D02E5002E12D041A
:1026880002E353B2CAD728C01FF029C020F0000EB9
:102698002F24216E010E3020226E2DC023F02EC073
:1026A80024F09AEF14F04DD862EC17F01C0E106E5F
:1026B8003B0EE82EFED7102EFCD743D862EC17F05D
:1026C8001C0E106E3B0EE82EFED7102EFCD739D804
:1026D80062EC17F01C0E106E3B0EE82EFED7102E83
:1026E800FCD7010E0E6E080E62EC17F01C0E106E71
:1026F8003B0EE82EFED7102EFCD7010E0E6E62ECB4
:1027080017F01C0E106E3B0EE82EFED7102EFCD7CD
:10271800010E0E6E060E62EC17F01C0E106E3B0ECC
:10272800E82EFED7102EFCD7010E0E6E0C0E62ECB2
:1027380017F01C0E106E3B0EE82EFED7102EFCD79D
:102748001200010E0E6E380C30D01050D96EDA6AB5
:102758005B040CD0DF6E000C1050D96EDA6A020EE2
:1027680004D01050D96EDA6A030E5B181CE119D038
:102778001050D96EDA6A5CC0DFFF000C1050D96EB9
:10278800DA6A5AC0DFFF000C1050D96EDA6A59C0F5
:10279800DFFF000C24D8FCA106D003D020D8FCA36E
:1027A80002D0010ED7D7000ED5D70EC011F00FC03A
:1027B80012F01250D8A4020C1150640AC6E0010AA3
:1027C800CBE0030ACEE0010AD3E00F0AD7E0010A02
:1027D800DBE0030ADFE0010AD8A4020CDFD71050BF
:1027E800D96EDA6A000112001150121003E011507C
:1027F800121003E10F5036EF18F020EE0AF02CD833
:10280800DE50DE1013E020EE0AF026D810EE03F0BA
:102818001150E1261250E222DE50E65CE650800AB2
:10282800176EDE50800A1758D8B0120020EE03F059
:1028380013D8DF50136E11C0D9FF12C0DAFFDF5072
:102848001324D96EDA6A0FC0DFFF20EE03F004D834
:10285800DE2A000EDD22000C1150D9261250DA2291
:102868001200920EF66E300EF76E000EF86E00EE45
:10287800EEF010EE0FF00900F5CFEEFFE550E15055
:10288800FAE102EE00F010EEFFF0EE6AE550E150DA
:10289800FCE1E250FAE101EE00F0200EEE6AE806F3
:1028A800FDE100EE60F0720EEE6AE806FDE15D6A99
:1028B80000EE51F00C0EEE6AE806FDE15E905E92C5
:1028C800000EF86E000131EF04F0176A186A145010
:1028D8007CEC0CF02A0A1DE1145085EC0CF0155024
:1028E8008BEC0CF0DECF17F0DECF18F01AD017C043
:1028F8000EF018C00FF0116A0A0E106EB0EC17F047
:1029080016500E24176E000E0F20186E145085EC0A
:102918000CF014507CEC0CF0D00F166E090E1664F7
:10292800E6D717C014F018C015F0120053A003D052
:1029380022D804EC17F024AE02D0236A246A266A4F
:10294800276A0BD0106A200E0F6E1FC011F020C02E
:1029580012F0F8EC13F0264A272A2350265C275059
:10296800800A256E2450800A2558ECE353B01200E3
:1029780002D804EF17F021C018F022C019F01FC0C8
:102988001AF020C01BF012000001FCB104D0F60EB2
:10299800DF6FFF0E03D0F20EDF6FFF0EE06FB20E97
:1029A800466E5F0E476EFF0E486EDFC049F0E0C00E
:1029B8004AF068EC16F0FCB304D0F60EE16FFF0E97
:1029C80003D0F20EE16FFF0EE26F920E466E4F0ECD
:1029D800476EFF0E486EE1C049F0E2C04AF068EF6A
:1029E80016F0156E070E1516010E0E6E15C013F0B3
:1029F800070E1316D8901336D8901336D890133480
:102A0800400962EC17F0166A0E6A16501124136E0C
:102A1800000E1220146E13C0F6FF14C0F7FF080052
:102A2800F55062EC17F0162A070E1664EDD7000E63
:102A380051EF18F00001FCA119D052B252A001D0F8
:102A4800000C52B202D052A011D074C016F075C05A
:102A580017F076C018F077C019F01A6A140E34EC23
:102A680007F0D2EC16F000090BE0000CC3EC17F0ED
:102A78000EC074F00FC075F010C076F011C077F07A
:102A8800010C4D6E4D505C18D8B41200030E5B1843
:102A9800D8B412004D500EE01EEC15F000090AE003
:102AA800040E0E6E12EC16F0010E5C6EA00E466E51
:102AB800FE0E0AD0050E0E6E000E12EC16F0000186
:102AC800906B5C6AAFEC15F0476E13EF18F0186A5C
:102AD800196A155016101BE0010E176E04D0D89015
:102AE80015361636172A16AEFAD7D890183619366C
:102AF8001550135C1650145805E31550135E165004
:102B0800145A1880D89016321532172EEED718C0DE
:102B180013F019C014F012004D6E4D505A18D8B465
:102B280012004D500EE01EEC15F000090AE0100EE0
:102B38000E6E2FEC16F0010E5A6E8E0E466EFE0EBD
:102B480007D0100E0E6E000E2FEC16F05A6A03D83E
:102B5800476E13EF18F0690E466EFE0E12000ED087
:102B6800000E0E6E16D8F76403D00800F55002D098
:102B780041EC10F062EC17F0104A112A0AD8F764F9
:102B880003D00800F55002D041EC10F00009E8E14C
:102B9800120010C0F6FF11C0F7FF000EF86E0E0EFF
:102BA80012001050111017E0010E126E04D0D890C8
:102BB80010361136122A11AEFAD710500E5C115089
:102BC8000F5804E310500E5E11500F5AD89011326E
:102BD8001032122EF2D70EC00EF00FC00FF01200F6
:102BE800586A576A4D6A4E6A4DC00EF04EC00FF0D3
:102BF800106883EC16F000090BE159EC0EF0476EF3
:102C08004DC048F04EC049F04B6A4A6813EC18F0C2
:102C18004D4A4E2A040E4E5CE7E312000F6E0E1C5E
:102C28000001FD15106E0F500E14101210C0FDF0AB
:102C3800886A10C083FF0D0EE82EFED700D082826E
:102C48000D0EE82EFED700D0829288680D0EE82E71
:102C5800FED700D012000F6E0E1C00019115106EE9
:102C68000F500E14101210C091F0886A10C083FF24
:102C78000D0EE82EFED700D082840D0EE82EFED76A
:102C880000D0829488680D0EE82EFED700D012007E
:102C980088688296849A0D0EE82EFED700D08DCFD4
:102CA80012F082860D0EE82EFED700D08DCF13F0DD
:102CB800848A0D0EE82EFED700D01250106E1350E5
:102CC8000E6E10C00FF01200490E0001D26F46C000
:102CD800D3F0D66BD76BDD6BDE6BD30E3F6E406ADD
:102CE80047C041F048C042F0D20E436EEBEC16F0FC
:102CF80046500001D625D96EDA6ADF6A1200040E42
:102D08000F5C01E3000C310E7B6E0FC07AFF0EC022
:102D180079FF10C07CFF7F8E7F98F29E550E816EE2
:102D2800AA0E816E8088F28E80B8FED77F9E7FB80B
:102D3800000C010C0F6E116A0E5014E0010E106E9B
:102D480003D0D8900E36102A0EAEFBD7D890113685
:102D58000E500F5C03E30E500F5E1180D8900E32B8
:102D6800102EF4D7115012004D6E4D505918D8B48A
:102D780012004D5007E0200E0E6E2FEC16F0010EDB
:102D8800596E06D0200E0E6E000E2FEC16F0596A02
:102D98007E0E466EFF0E476E13EF18F0C3EC17F069
:102DA80016500E5C1E6E17500F581F6E1850105894
:102DB800206E19501158216E1A501E5C1B501F5856
:102DC8001C5020581D50215801E3010C000C41C033
:102DD80044F042C045F00AD03FC032F040C033F062
:102DE800440E346E43C035F0D6EC0BF044C0F6FF09
:102DF80045C0F7FF0800F550EFE13F6A406A12004E
:102E08001D6A1E6A0BD01CC00FF0106A1AC011F0A0
:102E18001BC012F0F8EC13F01D4A1E2A1D5018248E
:102E2800D96E1E501920DA6EDF501C6E1C50EBE173
:102E3800120098CF06F006AE03D0010E046E01D042
:102E4800046A069E065076EC17F0036E03AE03D0B4
:102E5800010E056E01D0056A0450051801E0068EC2
:102E680006501200EE0E0E6E106A0F6A126A0F0EEE
:102E7800116ED6EC17F0050E0001F26FF16BF06FD2
:102E8800EF6BEE6FF36F0A0EF46F050EF56FFC81B2
:102E9800FC93050CB20E466E2D0E476EFF0E486E63
:102EA80068EC16F0920E466ED60E476EFE0E486E11
:102EB800F0C049F0F1C04AF068EF16F00F6E849246
:102EC8000E5002E0849001D084800FC083FF886A8E
:102ED80000D000D058EC18F088688B0EE82EFED78A
:102EE80000D01200026E016A02B0012A02B2012A61
:102EF80002B4012A02B6012A02B8012A02BA012A3A
:102F080002BC012A01B0028E025012000F6E080E98
:102F1800106E116AD8900F341134116ED8900F3694
:102F28000E50115C02E30E50115E102EF3D71150B3
:102F38001200B20E466E0B0E476EFF0E486E68EC1E
:102F480016F0920E466EC40E476EFE0E486EF3C023
:102F580049F04A6A68EF16F00E501002F3CF12F0EB
:102F6800F4CF13F00E501102F35013260F50100235
:102F7800F350132612C00EF013C00FF01200F29E89
:102F880060C012F061C013F062C014F063C015F0A5
:102F9800F28E12C00EF013C00FF014C010F015C05E
:102FA80011F012000EC013F006D01350D96EDA6A71
:102FB8000FC0DFFF132A1106D8A012061128F5E169
:102FC8001228F3E11200016E600E016403D0015073
:102FD800A90F1200400E016403D00150C90F12005E
:102FE8000150D00F12000E6E0E5006E00201018F44
:102FF8000EC002F2030E556E050E566E0E01C08904
:10300800050CC3EC17F00EC078F00FC079F010C0B3
:103018007AF011C07BF0010E00018A6F010C480E96
:103028004C6E3F6A406A46C041F047C042F04C0EC1
:10303800436EEBEF16F0026E0A0E026003D00250E8
:10304800300F02D00250370F016E01501200310EBE
:103058007B6E0FC07AFF0EC079FF7F8E80807F9EC7
:103068007C5012000E6E5DA012000E01C0B9120055
:10307800C8A9FED70EC099FF1200036E035076EC64
:1030880017F0036E03C099FF120000000000001E35
:093098000A05000000000000011F
:1030A200106E010E0E6E1050800962EF17F08484CC
:1030B20000D000D0849400D000D012000001602B18
:1030C200000E612362236323000C0E01C59B5FEC9B
:0630D20018F05E921100EF
:10FAB800000000000000000000000000000000003E
:10FAC8000000000000000000020304060708090AFD
:10FAD8000B0D0E0E0F1011121314141516171718FC
:10FAE80019191A1B1B1C1C1D1E1E1F1F202021213B
:10FAF80022222323242425252526262727282829AA
:10FB080029292A2A2B2B2C2C2C2D2D2E2E2F2F2F2A
:10FB180030303131323232333334343435353636AD
:10FB280037373738383939393A3A3B3B3B3C3C3D33
:10FB38003D3D3E3E3F3F3F404041414142424343BD
:10FB48004344444545454646474747484849494947
:10FB58004A4A4B4B4B4C4C4D4D4E4E4E4F4F5050CE
:10FB68005051515252535354545455555656575751
:10FB7800585859595A5A5A5B5B5C5C5D5D5E5E5FCA
:10FB88005F6060616162626263636363636363634E
:10FB9800636363636363636363636363636363632D
:10FBA800636363636363636363636363636363631D
:10FBB80063020502081808081C0205021804081048
:10FBC8001C0205020000000000111F1F1F1F1F1F3D
:10FBD8001F1111111F1F1F1F1F11111111111F1F9D
:10FBE8001F111111111111111F445241494E005298
:10FBF800554E20200044454741530046494C4C206F
:10FC0800005245414459004E6F2076616C6964206A
:10FC1800454550524F4D20626C6F636B20666F757F
:10FC28006E642C206C6F6164696E67206465666120
:10FC3800756C7473210D0A00454550524F4D20775D
:10FC480072697465206661696C65642C20616464FE
:10FC5800723D3078253034582C20646174613D3011
:10FC680078253032582E0D0A00454550524F4D2008
:10FC78007772697465204F4B2C20616464723D3043
:10FC880078253034582C20646174613D30782530F3
:10FC980032582E0D0A004D6F737420726563656EBD
:10FCA8007420454550524F4D20646174612069733A
:10FCB80020617420626C6F636B2025752E0D0A001D
:10FCC800536176696E672073657474696E67732013
:10FCD800746F20454550524F4D20626C6F636B2006
:10FCE80025752E0D0A00427574746F6E206C6F6E48
:10FCF800672070726573733A20253032580D0A00F8
:10FD08004E6F726D616C206379636C6520636F6DF3
:10FD1800706C6574652E0D0A004E6F726D616C20F3
:10FD28006379636C6520737461727465642E0D0A5F
:10FD3800004465676173206379636C6520636F6D48
:10FD4800706C6574652E0D0A00427574746F6E20B0
:10FD580072656C65617365643A20253032580D0A06
:10FD680000447261696E206379636C652073746105
:10FD7800727465642E0D0A004465676173206379A7
:10FD8800636C6520737461727465642E0D0A00419A
:10FD980075746F20647261696E20636F6D706C6535
:10FDA80074652E0D0A00427574746F6E207072654A
:10FDB800737365643A20253032580D0A0042757411
:10FDC800746F6E207265706561743A202530325800
:10FDD8000D0A002532750C43202532750C4320206E
:10FDE8002025753A2530327500496E746572727532
:10FDF800707420656E61626C652E0D0A0053746123
:10FE08007274757020636F6D706C6574652E0D0A61
:10FE1800004C6F6164696E672073657474696E67FE
:10FE2800732E0D0A0025753A25303275202052456B
:10FE380043495243202020200025753A2530327549
:10FE480020202020202020202041495200415554C4
:10FE58004F20445241494E202025753A25303275AD
:10FE6800004865617465722064697361626C6564D9
:10FE78002E0D0A002A2A2A20537461727475702084
:10FE88002A2A2A0D0A0052656369726320656E6129
:10FE9800626C65642E0D0A004865617465722065A0
:10FEA8006E61626C65642E0D0A00556C7472617324
:10FEB8006F6E696373204F46460D0A002532752020
:10FEC8005345432020202020204241434B00253227
:10FED80075204D494E2020202043414E43454C007B
:10FEE8002532750C43202573202025753A2530329C
:10FEF8007500556C747261736F6E696373204F4E31
:10FF08000D0A004155544F20445241494E2054494E
:10FF18004D4520002121454550524F4D2045524125
:10FF280053452121002D2D2D4155544F204445473F
:10FF380041532D2D2D004445425547205458204506
:10FF48004E41424C45440025732020204155544FD2
:10FF580020445241494E002573202020572D4C56ED
:10FF68004C2050524F5400454550524F4D2073611C
:10FF78007665210D0A0041697220656E61626C65C3
:10FF8800642E0D0A0057445420656E61626C652E1C
:10FF98000D0A0049444C45206D6F64652E0D0A001A
:10FFA8004144432073746172742E0D0A00486561E0
:10FFB800746572206F66660D0A0048656174657223
:10FFC800206F6E0D0A0045524153494E472E2E2E82
:10FFD800200053617665204F4B210D0A00286E756D
:10FFE8006C6C2900444F4E4521004F4E20004F466F
:07FFF80046002532750000F0
:020000040030CA
:0C00000089FFFDF4BFFFFFFFFFFFFFFFC3
:00000001FF
