:0400000066EF00F0B7
:0400080004EF04F00D
:040018000CEF04F0F5
:100046002F5012007F981200286A296A12009D8A92
:100056009C880E01C08B120002C028F001C029F056
:100066001200036E035079EC00F0036E03C099FF93
:100076001200026E0A0E026003D00250300F02D048
:100086000250370F016E01501200016E015006E05A
:100096000101018F01C002F1030E2C6E050E2E6EBA
:1000A6000E01C089050C016E600E016403D001507B
:1000B600A90F1200400E016403D00150C90F1200AF
:1000C6000150D00F120001EE00F010EEFFF0EE6AC4
:1000D600E550E150FCE1E250FAE100EE28F0080EAE
:1000E600EE6AE806FDE100019EEF02F0026E016A8B
:1000F60002B0012A02B2012A02B4012A02B6012A7A
:1001060002B8012A02BA012A02BC012A01B0028EF3
:100116000250120009D0000E016E09D8A3EC00F0BF
:10012600032A000E0422052202D8F5E1120003C0BC
:10013600F6FF04C0F7FF05C0F8FF0800F5501200EF
:10014600026E8492015002E0849001D0848002C045
:1001560083FF886A00D000D0848400D000D08494C5
:1001660000D000D088688B0EE82EFED700D0120093
:1001760098CF06F006AE03D0010E046E01D0046AD5
:10018600069E065079EC00F0036E03AE03D0010E16
:10019600056E01D0056A0450051801E0068E06506A
:1001A6001200000EF2BE010E046E03C07BFF02C0F9
:1001B6007AFF7F8EF29E0F012950816F2850816F42
:1001C600808D04B002D0F29E01D0F28E7F8E7FB871
:1001D600010C000C88688296849A0D0EE82EFED7D4
:1001E60000D08DCF05F082860D0EE82EFED700D00A
:1001F6008DCF06F0848A0D0EE82EFED700D005506E
:10020600036E0650016E03C002F01200000EF2BE2D
:10021600010E066E03C07BFF02C07AFF01C079FFA4
:1002260005C07DFF04C07CFF7F8EF29E0F01295022
:10023600816F2850816F808906B002D0F29E01D06E
:10024600F28E7F9E7FB8010C000C026E886A02C097
:1002560083FF0D0EE82EFED700D082820D0EE82E0B
:10026600FED700D0829201C083FF0D0EE82EFED786
:1002760000D082840D0EE82EFED700D082948868C6
:100286000D0EE82EFED700D01200F7CF04F0056A57
:10029600066A076A06C007F005C006F004C005F046
:1002A600046AF8CF08F0096A0A6A0B6A09C00BF0FB
:1002B60008C00AF0096A086A045008100C6E055056
:1002C60009100D6E06500A100E6E07500B100F6EB9
:1002D600F6500C10106E0D50116E0E50126E0F501F
:1002E600136E03C0F8FF02C0F7FF01C0F6FF080057
:1002F60012C0F8FF11C0F7FF10C0F6FFF55012004C
:100306004DD8A3EC00F01C0E036E3B0EE82EFED774
:10031600032EFCD743D8A3EC00F01C0E036E3B0E55
:10032600E82EFED7032EFCD739D8A3EC00F01C0E1E
:10033600036E3B0EE82EFED7032EFCD7010E016E90
:10034600080EA3EC00F01C0E036E3B0EE82EFED743
:10035600032EFCD7010E016EA3EC00F01C0E036EFB
:100366003B0EE82EFED7032EFCD7010E016E060EBD
:10037600A3EC00F01C0E036E3B0EE82EFED7032EF8
:10038600FCD7010E016E0C0EA3EC00F01C0E036EE2
:100396003B0EE82EFED7032EFCD71200010E016E8F
:1003A600380C3ED03A0E34EC00F02A6A2B6A060E60
:1003B6002E6E060C2C502A180AE12B6C2B380F0BCC
:1003C6003CEC00F034EC00F0090E2E6E090C36D829
:1003D600046E04380F0B3CEC00F034EC00F0070E12
:1003E6002E6E070C2BD80F0B3CEC00F034EC00F013
:1003F60025D82B262A2ADBD72B500F0B3CEC00F0F6
:1004060034EC00F00A0E2E6E0A0C0D0E34EC00F0E1
:100416000B0E2E6E0B0C0A0E34EC00F00E0116D0ED
:100426002E50050ABFE0030AC5E0010ADBE00E0A0A
:10043600E3E0030AEAE0010AEEE008D0000E2A240F
:10044600D96EDA6A010EDA22DF501200C0992E6ADE
:1004560012009CA203D09C989C881200BBEC00F072
:10046600086E9CA408BE12000E01C0B91200030E4D
:100476002E6401D0030C3A0E081805E12C6A2D6A89
:10048600010E2E6E010C0D0E08180AE12E0403E172
:10049600030E2C6002D02E6A1200030E2E6E030C81
:1004A6000A0E081809E1030E2E18F5E12D50F3E1A6
:1004B6002C06040E2E6E040C08C007F0D00E07267C
:1004C600090E076409D008C007F0200E07129F0E18
:1004D6000726060E0760060C2E040FE12C28DBE02B
:1004E600000E2C2423D8085056EC00F0076E07386F
:1004F600F00BDF6E020E2E6E020C020E2E18D8A422
:100506001200085056EC00F0076E000E2C240ED890
:100516000750DF122C5003E101010051BCE1000E2F
:100526002C2404D8DF502D262C2AAAD7D96EDA6AB5
:10053600010EDA221200F29E826A836A380E846EF7
:100546000F010A6B126B1A6BE10E876E8868980EA4
:10055600896EC10E0C6F146B1C6B0B6B1369180E36
:100566001B6F286B0969116919690869106918698F
:10057600080E256F016A400E28EC01F08288170EDE
:100586000E01B06F090EF86F130EB26F0F0EF56FF6
:10059600140EB36F100EF66F480E9E6E900E9C6E84
:1005A600260E9D6E480E9A6E9B6A7F98030E276EE6
:1005B600210E266EB30EE82EFED7262EFCD7272E4A
:1005C600FAD70000EDEC00F001B00BD0010E016E81
:1005D600080E026E036A48EC01F0FF0A02E000EF23
:1005E60004F02AEC00F083EC01F0F00E036E070E27
:1005F600046E000E056E8DEC00F00E01C0B9C8A9A0
:1006060002D0D4EC01F00E01C0BBC8AB02D02CEC7A
:1006160002F018EC03F023EC00F00009EEE00E0106
:10062600C0A99DA2EAD7FF00E8D7040E2E18D8A4C9
:100636001200196A6C0E0101011901E1A7D0A4D0BC
:10064600016802683F0E036E48EC01F00101036F7A
:10065600FE0EC1D848EC01F00101046FFD0EBBD8B7
:1006660048EC01F00101056FFC0EB5D848EC01F02D
:100676000101066F070E2C6E97D0010E2F6E94D0D7
:1006860096D82050070F2C6EF60E206401D022D08B
:10069600070E1C6E010E1D6E0ED01EC001F01FC08F
:1006A60002F0036A48EC01F091D8DF6E1E4A1F2A59
:1006B6001C4A1D2A2006205077E0EFD704C118F007
:1006C60005C11AF01B6A06517AD8070E2C6E080E61
:1006D600186003D0030E196E67D025EC00F080D8A1
:1006E6002FEC00F01850156E146A14C001F015C0F6
:1006F60002F0036AD4EC00F0E80602E1030E196E7C
:1007060027EC00F051D053D807C11AF01B6A0851E4
:1007160056D8090E2C6EF50E2060DCD720A01EB030
:10072600D9D7080E1F5CD6E35BD82FEC00F0090E74
:100736001C6E010E1D6E25D049D8DF50166E176A45
:100746001C4A1D2A43D8DF50156E146A145016121F
:10075600155017121C4A1D2A25EC00F01EC001F088
:100766001FC002F0036A16C004F017C005F009ECBA
:1007760001F0E806C3E0020E1E26000E1F22020E3E
:10078600205E2050BDE0D8D7010EA5D7025101E169
:1007960057D7010A01E171D7030A01E171D7010AAE
:1007A6008DE0070AB0E0F0D7195048EF00F0045189
:1007B6001F6E1E6A05511E1206C120F01200156E2C
:1007C600146A14501A1215501B1212001CC0D9FFBD
:1007D6001DC0DAFF1200016E02683F0E036E3F0C69
:1007E6001AC001F01BC002F01200424F4F544C4F8A
:0A07F60041444552204D4F44450098
:020000040030CA
:0C000000A9DFFFF4BFFFFFFFFFFFFFFFC1
:00000001FF
